:020000040800F2
:1000000000240124BDD70008ADCF0008B5CF0008FB
:10001000B7CF0008B9CF0008BBCF00080000000030
:10002000000000000000000000000000BDCF00083C
:10003000BFCF000800000000C1CF0008C3CF0008F8
:1000400007D800080BD800080FD8000813D80008FC
:1000500017D800081BD800081FD8000823D80008AC
:1000600027D800082BD800082FD8000833D800085C
:1000700037D800083BD800083FD8000843D800080C
:1000800047D800084BD800084FD8000853D80008BC
:1000900057D800085BD800085FD8000863D800086C
:1000A00067D800086BD800086FD8000873D800081C
:1000B00077D800087BD800087FD8000883D80008CC
:1000C00087D800088BD800088FD8000893D800087C
:1000D00097D800089BD800089FD80008CFCF000809
:1000E000D9CF0008A3D8000800000000A7D8000856
:1000F000ABD80008AFD80008B3D80008B7D80008BC
:10010000BBD80008BFD80008C3D80008C7D800086B
:10011000CBD80008CFD80008D3D80008D7D800081B
:10012000DBD80008DFD80008E3D80008E7D80008CB
:10013000EBD80008E5CF0008EFD80008F3D8000896
:1001400000000000000000000000000000000000AF
:10015000F7D80008FBD80008FFD8000803D900082A
:1001600007D900080BD900080FD9000813D90008D7
:1001700017D900081BD900081FD90008000000008B
:1001800023D9000827D900082BD900082FD9000847
:1001900033D9000837D900083BD900083FD90008F7
:1001A00043D9000847D900084BD900084FD90008A7
:1001B00053D9000857D900085BD900085FD9000857
:1001C00063D9000867D900086BD900086FD9000807
:1001D00073D9000877D900087BD900087FD90008B7
:1001E00083D9000887D900088BD900088FD9000867
:1001F00093D9000897D900089BD900089FD9000817
:10020000A3D90008A7D90008ABD90008AFD90008C6
:10021000B3D90008B7D90008BBD90008BFD9000876
:10022000C3D90008C7D90008CBD9000800000000D6
:10023000CFD90008D3D9000800000000D7D90008A2
:10024000DBD90008DFD90008E3D90008E7D90008A6
:10025000EBD90008EFD90008F3D90008F7D9000856
:10026000FBD90008FFD9000803DA000807DA000804
:100270000BDA00080FDA000813DA000800000000AB
:1002800017DA0008000000001BDA00080000000078
:10029000000000001FDA000830B402000020401CFB
:1002A0004823DFF8404603FB00F5655915F1010FBF
:1002B0000AD003FB00F565599542F0D103FB00F528
:1002C00025446D688D42EAD103FB00F3E15811F13A
:1002D000010F00D1002030BC704770B50400002031
:1002E000A1680860E1684FF49C7041430022656892
:1002F000280002F0FFF94FF4947561696943002208
:100300002669300002F0F6F94FF4805200212000F7
:1003100002F025FB002005E00104226905FB00F343
:10032000D150401C61698842F6DB70BD3EB50400C7
:1003300000208DF8080041F27075019502A8009028
:10034000012340F203120021206804F016F8112066
:100350008DF80800019502A8009001234FF49072D7
:100360000021206804F009F8019502A800900123FB
:100370004FF490720021206803F0FFFF44F62060E4
:1003800001900DF10A000090022300220021206854
:1003900004F02DF80100012903DB042903DAA06829
:1003A000016008003EBD0422DFF83C0504F0AAF914
:1003B0007FF00100F6E730B593B004004021002241
:1003C00003AD280002F096F900208DF8080041F2F4
:1003D0007075019502A80090012340F201120021DE
:1003E000206803F0CAFF0420ADF80A0001950DF162
:1003F0000A00009002234FF400720021206803F0ED
:10040000BCFF019503A8009008234FF4407200211F
:10041000206803F0B2FF019503A8009030234FF449
:10042000C0620021206803F0A8FF019503A8009096
:1004300020234FF400620021206803F09EFF00207B
:100440008DF80800019502A80090012340F6811262
:100450000021206803F091FF019503A80090042378
:100460004FF411620021206803F087FF4FF48050A1
:10047000ADF80A0001950DF10A00009002234FF437
:1004800013620021206803F078FF4FF44060ADF85C
:100490000A0001950DF10A000090022340F6341283
:1004A0000021206803F069FF00208DF80800019505
:1004B00002A80090012340F203120021206803F0FB
:1004C0005CFF11208DF80800019502A8009001231F
:1004D0004FF490720021206803F04FFF02208DF846
:1004E0000800019502A8009001234FF4A0620021AA
:1004F000206803F042FF00208DF80800019502A853
:10050000009001234FF4A0620021206803F035FF22
:1005100013B030BDF8B5426889B24FF49C704143C6
:1005200002EB0105E968A868FFF7B6FE0400A5F82C
:10053000F640002C00F0A1804826EA4F06FB04F0AC
:10054000384490F83100E88206FB04F0384410F19A
:10055000080115F5867004F0E9F806FB04F038444C
:10056000408EE88406FB04F03844808E2883288B74
:10057000002802D0012085F8B900E88C002802D0BC
:10058000022085F8BA0006FB04F0384490F84400D5
:1005900085F8850006FB04F0384490F8450085F89E
:1005A000950006FB04F03844C08EA5F8410006FB18
:1005B00004F03844806BC5F84500288B00281CD017
:1005C000B5F84100002818D14FF47060A5F831004B
:1005D000288BC01D082190FBF1F0A5F83300DFF84F
:1005E000A80DC5F83500012085F88500022085F8A2
:1005F0008400032085F8710009E0288BC01D0821C4
:1006000090FBF1F0A5F84300032085F8730006FB8A
:1006100004F03844808FA5F8490006FB04F607EB88
:100620000600006CC5F84D00E88C00281BD0B5F81A
:100630004900002817D14FF48050A5F83900E88C04
:10064000C01D082190FBF1F0A5F83B000020C5F883
:100650003D00012085F89500012085F894000420D4
:1006600085F8720009E0E88CC01D082190FBF1F0CC
:10067000A5F84B00042085F874002000F2BD2DE998
:10068000F04107000C00200080B20228C0F2268151
:10069000B86800680128C0F22181012500E06D1CC6
:1006A0004FF49C76786806FB05F108448068796809
:1006B000220092B2724311448968884219D1786845
:1006C00006FB05F10844C0687968220092B27243C3
:1006D0001144C96888420CD1786806FB05F10844CA
:1006E00000697968220092B2724311440969884214
:1006F00003D0200080B28542D1DB200080B2854249
:1007000080F2EC807868210089B2714308447968EE
:1007100006FB05F2114491F8FC1080F8FC10786893
:10072000210089B271430844796806FB05F211443F
:1007300091F8FD1080F8FD107868210089B27143AE
:100740000844796806FB05F2114491F8FE1080F820
:10075000FE107868210089B271430844796806FB6D
:1007600005F2114491F8FF1080F8FF10786806FB3D
:1007700005F1084490F8020100280ED078682100A5
:1007800089B271430844012180F80211786890F819
:100790000201401C796881F802017868210089B261
:1007A00071430844796806FB05F21144B1F8001161
:1007B000A0F800117868B0F800117868220092B2B1
:1007C00072431044B0F8000141187868A0F8001195
:1007D0002922786806FB05F1084410F586717868CF
:1007E00023009BB27343184410F58678404603F00B
:1007F000A9FF002033E07968220092B272431144CD
:1008000001EBC0017A6806FB05F31A4402EBC00253
:10081000B2F83120A1F831207968220092B27243F7
:10082000114401EBC0017A6806FB05F31A4402EBA0
:10083000C002B2F83320A1F83320796806FB05F234
:10084000114401EBC002D2F835107A6823009BB244
:1008500073431A4402EBC002C2F83510401C08284A
:10086000C9DB7868210089B271430844796806FBC6
:1008700005F2114491F8B91080F8B9107868210098
:1008800089B271430844796806FB05F2114491F876
:10089000BA1080F8BA107868210089B27143084410
:1008A000796806FB05F2114491F8BB1080F8BB1083
:1008B0007868210089B271430844796806FB05F61F
:1008C000314491F8BC1080F8BC102A00A4B2210079
:1008D000DFF8AC0D03F016FF012000E00020BDE8BA
:1008E000F081000020C8000810D000082DE9F34F67
:1008F00083B004009DF81010DFF8880D03F002FFAC
:100900002000FFF7EAFC2000FFF710FD0500012D95
:10091000C0F2A0842000FFF74EFD012672E0002304
:1009200023E0D6F1010941F270773B004FF4A07249
:10093000494689B2206803F0F0FD4FF49C78616865
:10094000320092B208FB02F211448882009716F539
:1009500080539BB21022494689B2206803F082FE80
:10096000300080B20128DAD101230097DBB29BB2BC
:100970004FF48072494689B2206803F073FE3B0051
:100980001022494689B2206803F0C7FD814660689D
:10099000310089B208FB01F10844A0F804900197E6
:1009A0000DF10A00009002231222494689B2206804
:1009B00003F0C3FD6068310089B208FB01F108440F
:1009C000BDF80A10C180019702A80090022340F2EE
:1009D0000252494689B2206803F0AFFDBDF8080015
:1009E000400608D56068310089B208FB01F8404430
:1009F000012180F8FA100822310089B2200002F0AB
:100A0000A1FF761CA0680068310089B2884288DAAC
:100A1000012616E044F62062310089B2200002F07F
:100A2000E1FF626833009BB24FF49C714B4302EBD1
:100A3000030188600A22310089B2200002F082FF9F
:100A4000761CA0680068310089B28842E2DA01268B
:100A500016E044F62062310089B2200002F0C2FFA5
:100A6000626833009BB24FF49C714B4302EB03016D
:100A7000C8600C22310089B2200002F063FF761CAE
:100A8000A0680068310089B28842E2DA012616E0E7
:100A900044F62062310089B2200002F0A3FF6268B0
:100AA00033009BB24FF49C714B4302EB030108618E
:100AB0001822310089B2200002F044FF761CA068A1
:100AC0000068310089B28842E2DA012628E044F663
:100AD0002062310089B2200002F084FF4FF49C7143
:100AE000626833009BB24B431A44A2F8C0006268AC
:100AF00033009BB24B431A44000CA2F8BE0060685E
:100B0000320092B201FB02F10844B0F8BE000028A6
:100B100005D01A22310089B2200002F013FF761CA2
:100B2000A0680068310089B28842D0DA012604E169
:100B30006068310089B2794308445146C9B200EB7C
:100B4000C100616C8988A0F831106068310089B2F9
:100B5000794308445146C9B200EBC100616CC988B1
:100B6000A0F833106068310089B2794308445146D7
:100B7000C9B200EBC100616C097A626C927A12040E
:100B80005118C0F835101AF1010A5046C0B20828B1
:100B90000ADA5346DBB29BB2626C310089B22000A4
:100BA00002F08BF90028C3D1A26C310089B2200079
:100BB00002F06DF8002833D0A06CC078FF2808D070
:100BC0006068310089B279430844A16CC97880F823
:100BD000B910A06C0079FF2808D06068310089B294
:100BE00079430844A16C097980F8BA10A06C407967
:100BF000FF2808D06068310089B279430844A16CAD
:100C0000497980F8BB10A06C8079FF2808D0606813
:100C1000310089B279430844A16C897980F8BC100D
:100C20006068310089B279430844B0F8BE000028FA
:100C300073D06068310089B279430844B0F831005C
:100C4000002827D1310089B2DFF8600D03F05AFD8A
:100C50006068310089B2794308444FF48051A0F8AC
:100C600031106068310089B2794308448021A0F8CE
:100C700033106068310089B279430844DFF8301DD1
:100C8000C0F835106068310089B279430844012109
:100C900080F871106068310089B279430844B0F877
:100CA0003900002827D1310089B2DFF8080D03F0A0
:100CB00029FD6068310089B2794308444FF48451BA
:100CC000A0F839106068310089B279430844802166
:100CD000A0F83B106068310089B279430844DFF81E
:100CE000D81CC0F83D106068310089B279430844CF
:100CF000022180F87210CDF804906068310089B24A
:100D000007FB01F738443130009010234FF40062A4
:100D1000414689B2206803F0B0FC310089B220005E
:100D200002F0F6FCCDF8009012234FF49072414689
:100D300089B2206803F0DBFC761CA06800683100F3
:100D400089B28842C0F286824FF49C776068310095
:100D500089B279430844B0F8BE00002832D044F686
:100D60002062310089B2200002F03CFE616832004E
:100D700092B27A431144A1F8C4006168320092B281
:100D80007A431144000CA1F8C2006068310089B2B6
:100D900079430844B0F8C20000280DD160683100E2
:100DA00089B2794308446168320092B27A431144AF
:100DB000B1F8BE10A0F8C2101C22310089B2200088
:100DC00002F0C0FD6068310089B279430844B0F890
:100DD000048041F270794B460822414689B220686E
:100DE00003F0F6FB80B210F00400012808DB606815
:100DF000310089B279430844012180F8C91007E025
:100E00006068310089B279430844002180F8C91034
:100E10004B464FF48872414689B2206803F0D8FBF4
:100E20005FF0000A5FF0000B010089B211F440711D
:100E3000B1F5007F03D11AF1010A5BF0010B01004B
:100E400089B211F44061B1F5006F03D11AF1010AC2
:100E50005BF0020B010089B211F44051B1F5005F63
:100E600003D11AF1010A5BF0040B80B210F4404088
:100E7000B0F5004F03D11AF1010A5BF0080B4B46A5
:100E80000722414689B2206803F0A2FB6168320064
:100E900092B27A43114481F8CA006068310089B285
:100EA0007943084480F8CBA06068310089B2794367
:100EB000084480F8CCB06068310089B279430844B6
:100EC0000021A0F8CE10300080B202282EDB0021D5
:100ED000701E626810FB07F31A4492F8CB201300CF
:100EE0009BB2012B00D1491E13009BB2032B00D1F2
:100EF000491C13009BB2042B00D1891C0B001BB2B0
:100F0000002B02D492B2022A03DA020012B2012AA2
:100F100007D1626833009BB27B431A44A2F8CE002B
:100F20000120401E020012B2012AD2DADFF88C3A08
:100F30000122310089B2200002F090F9606831008E
:100F400089B279430844B0F8BE00002877D06068C1
:100F5000310089B279430844012180F8711060683A
:100F6000310089B279430844022180F87210606828
:100F7000310089B279430844032180F87310606816
:100F8000310089B279430844042180F87410606804
:100F9000310089B2794308446168320092B27A43E1
:100FA0001144B1F8C010A0F831106068310089B266
:100FB000794308446168320092B27A431144B1F82F
:100FC000BE10A0F833106068310089B2794308443C
:100FD000DFF8DC19C0F835106068310089B2794358
:100FE00008446168320092B27A431144B1F8C410E7
:100FF000A0F839106068310089B27943084461680B
:10100000320092B27A431144B1F8C210A0F83B10FA
:101010006068310089B279430844DFF89C19C0F850
:101020003D1044F62062310089B2200002F0DAFC63
:101030006168320092B27A431144A1F8C6000020E0
:101040009DF81010012904D1310089B22000FFF76A
:1010500061FA00287FF4E4AD310089B22000FFF787
:101060000EFB00287FF4DCAD1E22310089B2200087
:1010700001F00EFD8246504680B2002800F09080BC
:101080001AF1070292B2310089B2200001F067FC28
:101090006168320092B27A43114481F8FC001AF17F
:1010A000080292B2310089B2200001F058FC616858
:1010B000320092B27A43114481F8FD001AF109021C
:1010C00092B2310089B2200001F049FC616832001F
:1010D00092B27A43114481F8FE001AF10A0292B2E8
:1010E000310089B2200001F03AFC6168320092B20E
:1010F0007A43114481F8FF001AF10D0292B23100D7
:1011000089B2200001F02BFC10F0020001280EDB58
:101110006068310089B279430844012180F80211E6
:10112000606890F80201401C616881F802011AF1C0
:101130000E0292B2310089B2200001F010FC616809
:10114000320092B27A431144C0B2A1F800011AF100
:101150000F0A524692B2310089B2200001F0FFFB23
:101160006168320092B27A431144626833009BB2E4
:101170007B431A44B2F90021C0B2000200FA82F0A7
:10118000A1F800016068B0F800116068320092B206
:101190007A431044B0F8000141186068A0F80011CB
:1011A0000A22310089B2200001F072FC01280DDB17
:1011B0000123320092B26068310089B27943084459
:1011C00010F58671200001F0E2FC18E06068310043
:1011D00089B279430844C3686068310089B27943B1
:1011E00008448268DFF8481C6068B4461FFA8CFC2B
:1011F00007FB0CFC604410F5867003F0FBFA626C90
:10120000310089B2200001F0B7FD0128FFF6CCAC17
:101210006068310089B279430844616C8988A0F81C
:1012200031106068310089B279430844616CC98823
:10123000A0F833106068310089B279430844616CCA
:10124000097A626C927A12045118C0F835105FF076
:10125000010A9AE4280005B0BDE8F08FF8B50C004B
:10126000A4B2022CC0F28D8084682468012CC0F2E4
:101270008880012400E0641C4FF49C75466805FBDF
:1012800004F73E44B66847688C461FFA8CFC05FBA1
:101290000CFC6744BF68BE421DD1466805FB04F7DD
:1012A0003E44F66847688C461FFA8CFC05FB0CFC34
:1012B0006744FF68BE420ED1466805FB04F73E4412
:1012C000366947688C461FFA8CFC05FB0CFC6744AA
:1012D0003F69BE4203D00E00B6B2B442CBDB0E0073
:1012E000B6B2B4424DDA002626E047688C461FFAB3
:1012F0008CFC05FB0CFC674407EBC607D0F804C068
:1013000005FB04FEF4440CEBC60CBCF833C0A7F894
:1013100033C047688C461FFA8CFC05FB0CFC674405
:101320003744D0F804C005FB04FEF444B4449CF8F0
:1013300071C087F871C0761C082ED6DB466805FBA5
:1013400004F73E44368B1660466805FB04F73E44BE
:10135000F68C1E6046680F00BFB26F433E441268B1
:10136000328340680A0092B205FB02F528441A68ED
:10137000C284220089B2DFF8BC0A03F0C3F901205D
:1013800000E00020F2BD000044000100FEB50400B2
:101390000D001700DFF824360222290089B2200050
:1013A00001F05CFF4FF49C766068290089B27143BC
:1013B000435A6068290089B2714308448288290031
:1013C00089B2DFF8740A03F09DF96068290089B2D8
:1013D00071430844D0F80801002809D0280080B2E1
:1013E00061682A0092B272431144D1F8081188470B
:1013F0006068290089B271430844B0F8F6000028FB
:101400006ED100200290002001906068290089B20E
:101410007143084490F8C600400721D50020616858
:101420002A0092B27243114491F8FC10890608D543
:1014300002A8009001AB3A00290089B2200004F014
:1014400071F8002806D102AB01AA290089B2200058
:1014500003F078FF029A0199DFF8E00903F052F9EE
:1014600002980199084300282DD16068290089B2AB
:101470007143084490F8C600C00624D502AB01AA07
:10148000290089B2200004F07BFA6068290089B243
:10149000714308440199C91D082291FBF2F1A0F89B
:1014A00043106068290089B2714308440299C91D3C
:1014B000082291FBF2F1A0F84B10029A0199DFF893
:1014C000B00D03F01FF96068290089B27143084428
:1014D000019901836068ADB2754328440299C184C3
:1014E0000120FEBDF8B5ADF5426D04000D004FF4CE
:1014F0009C766068290089B271430844008B019092
:101500006068290089B271430844C08C009000983B
:1015100001990843002806D16B4601AA290089B227
:101520002000FFF79BFE009801990843002840F037
:10153000838040F61641002202AF380001F0DAF84D
:10154000002302AA290089B2200001F03CFD00908E
:101550000099DFF8200D03F0D5F800272CE002A851
:1015600000EB4700B0F8060C002824D06068290082
:1015700089B27143084400EBC70002A901EB47019F
:10158000B1F8061CC91D082291FBF2F1A0F8331036
:101590006068290089B2714308443844042180F806
:1015A000711002A800EB4700B0F8062C3900DFF8F4
:1015B000C80C03F0A7F87F1C082FD0DB012302AA78
:1015C000290089B2200001F0FEFC01900199DFF8AA
:1015D000AC0C03F097F800272CE002A800EB4700C2
:1015E000B0F8060C002824D06068290089B2714345
:1015F000084400EBC70002A901EB4701B1F8061C43
:10160000C91D082291FBF2F1A0F83310606829008F
:1016100089B2714308443844032180F8711002A84C
:1016200000EB4700B0F8062C3900DFF84C0C03F053
:1016300069F87F1C082FD0DB6068290089B27143EC
:101640000844019901836068290089B27143084404
:101650000099C1846068290089B271430844038BF2
:10166000009A6068ADB275432844C18CDFF8100C55
:1016700003F048F801200DF5406D09B0F0BD000001
:10168000FCD3000898D600082DE9FC4104000D00A9
:101690004FF49C766068290089B2714308448788BA
:1016A000DFF8E00B03F02EF86068290089B271437F
:1016B0000844B0F8BE00002833D16068290089B220
:1016C00071430844B0F8310000282AD041F270700C
:1016D00001906068290089B271430844313000905C
:1016E00008234FF40062390089B2206802F0C5FF78
:1016F0006068290089B271430844D0F835306068C9
:10170000290089B271430844B0F83120606829008B
:1017100089B27143084490F87110DFF86C0B02F045
:10172000F1FF6068290089B271430844B0F8BE0037
:10173000002833D16068290089B271430844B0F8A9
:10174000390000282AD041F27070019060682900A9
:1017500089B27143084439300090082340F60802EA
:10176000390089B2206802F088FF6068290089B2D8
:1017700071430844D0F83D306068290089B2714354
:101780000844B0F839206068290089B271430844E0
:1017900090F87210DFF8F40A02F0B4FF5FF002086C
:1017A00062E06068290089B27143084400EBC80018
:1017B000B0F83100002855D06068290089B2714323
:1017C000084400EBC800B0F83300002813D160686B
:1017D000290089B27143084400EBC801D1F83500F3
:1017E00061682A0092B27243114401EBC80130F4DF
:1017F0008030C1F8350041F27070019060682900B6
:1018000089B27143084400EBC800313000900823CE
:101810005FEAC80212F5006292B2390089B220680C
:1018200002F02BFF6068290089B27143084400EB85
:10183000C801D1F8350000906068290089B2714371
:10184000084400EBC800B0F831306068290089B264
:1018500071430844404490F871204146DFF8300A53
:1018600002F050FF18F10108B8F1080F99DB606829
:10187000290089B271430844C08C08280FDB6068D6
:10188000290089B27143084461682A0092B2724308
:101890001144C98CC91D082291FBF2F18162606874
:1018A000290089B271430844008B08280EDB606868
:1018B000290089B2714308446168ADB27543294477
:1018C000098BC91D082291FBF2F1C1610120BDE81D
:1018D000F6810020002206E0DFF8C81D130119443C
:1018E00049680818521C012AF6DB704770B50500DC
:1018F0000E00002006E00021DFF8A82D03011A44A5
:101900005160401C0128F6DB012418E03000C0B211
:1019100000280DD031006A6823009BB24FF49C7000
:10192000434302EB030090F80301C9B2814205D1A1
:101930000022210089B22800FFF728FD641CA86856
:101940000068210089B28842E0DAFFF7C2FF040094
:10195000002C03D04FF47A7004F0EEF8002CF4D190
:1019600001241CE03000C0B200280DD031006A68AC
:1019700023009BB24FF49C70434302EB030090F8AA
:101980000301C9B2814209D1210089B22800FFF7C1
:10199000A9FD210089B22800FFF776FE641CA86823
:1019A0000068210089B28842DCDA70BD98D0000856
:1019B0002600010054D000082200010080841E008F
:1019C0002DE9F74F84B004001D00119E5FF0000A5E
:1019D0005FF000090020002002905FF0000B29005A
:1019E00009B2DFF8C40C02F08DFE4FF49C776068FA
:1019F00015FB07F108448088ADF80C00606815FB02
:101A000007F1084490F80481606815FB07F1084469
:101A1000008B002802D10DE018F10108606815FB69
:101A200007F108444146C9B209010144D1F87900DF
:101A30000028F1D15846C0B2072880F2EF816068D3
:101A400015FB07F10844C08CC01D082190FBF1F084
:101A50000299814280F2E2814146C9B2DFF84C0C22
:101A600002F050FE01E01BF1010B5846C0B20728FE
:101A70000ADA606815FB07F108445946C9B2084400
:101A800090F871000428EED15946C9B2DFF8200C55
:101A900002F038FE606815FB07F108444146C9B200
:101AA00009010844616815FB07F211445A46D2B295
:101AB00001EBC201B1F83110A0F88110606815FB8C
:101AC00007F108445946C9B200EBC100B0F8330031
:101AD00019FA80F9010089B21AEBC10A616815FB95
:101AE00007F211445A46D2B201EBC201B1F83110EB
:101AF000411820E05946C9B2DFF8B40B02F002FEEB
:101B0000606815FB07F108445946C9B200EBC100F3
:101B1000B0F8330019FA80F9010089B21AEBC10A52
:101B2000616815FB07F211445A46D2B201EBC201BB
:101B3000B1F831104118606815FB07F21044C08CF1
:101B4000824524DA5846C0B2072820DA1BF1010B7F
:101B500001E01BF1010B5846C0B207280ADA6068A1
:101B600015FB07F210445A46D2B2104490F87100A7
:101B70000428EED1606815FB07F210445A46D2B231
:101B800000EBC200B0F8310089B28142B2D2606885
:101B900015FB07F10844806A00285CD1606815FBDA
:101BA00007F108444146C9B209010844109909687F
:101BB000C0F87910606815FB07F108444146C9B2C6
:101BC00009010844317880F87F103178606815FB8E
:101BD00007F21044C08C401E41183170307808283C
:101BE00007DB10980068401C1099086030780838AE
:101BF0003070606815FB07F108444146C9B209011D
:101C00000144D1F8790010990968081A401C6168EC
:101C100015FB07F211444246D2B212011144A1F859
:101C20007D00616815FB07F211444246D2B21201F1
:101C30001144327881F880203178491C3170317834
:101C4000082958DB10990968491C109A11603178ED
:101C5000083931704FE03078002806D010980068BD
:101C6000401C1099086000203070606815FB07F177
:101C700008444146C9B20901084410990968C0F8EE
:101C80007910606815FB07F108444146C9B20901A3
:101C90000844317880F87F1007203070484661682A
:101CA00015FB07F21144896A029A1218914206DA6A
:101CB000606815FB07F10844816A0298081A1099B8
:101CC00009684118109A1160616815FB07F2114408
:101CD0004246D2B212011144A1F87D00616815FBA1
:101CE00007F211444246D2B212011144327881F80F
:101CF000802000213170029940180290606815FB25
:101D000007F108444146C9B209010844B0F87D0012
:101D1000002849D0606815FB07F108444146C9B264
:101D200009010844002180F88310606815FB07F161
:101D300008444146C9B209010844012180F88410D1
:101D4000606815FB07F108444146C9B2090108441F
:101D5000012180F8851041F270700190606815FBD8
:101D600007F108444146C9B209010844793000909E
:101D700010234046C0B2020112F5C06292B2BDF813
:101D80000C10206802F079FC4FF4947021699DF8E2
:101D900018204243114422699DF8183000FB03F0DB
:101DA0001044808C401C8884606815FB07F108444F
:101DB000C06A00282FD1606815FB07F1084441462E
:101DC000C9B209010144D1F87900616815FB07F235
:101DD0001144059A1044C862606815FB07F1084475
:101DE000616815FB07F211444246D2B21201114458
:101DF00091F87F1080F83010606815FB07F10844F7
:101E000090F83020606815FB07F10844C16ADFF8DC
:101E1000A40802F077FC18F101080BE6606815FBD6
:101E200007F1084480F8048107B0BDE8F08F000096
:101E3000ACD600087CD3000864D20008B0D40008F7
:101E40002DE9F74F84B004001D00119E00275FF0BC
:101E500000080020002002905FF0000BDFF8580817
:101E600002F050FC4FF49C79606815FB09F10844BE
:101E700090F804A1606815FB09F108448088ADF86A
:101E80000C005AE13078002806D010980068401CF9
:101E90001099086000203070606815FB09F1084453
:101EA0005146C9B20901084410990968C0F879106F
:101EB000606815FB09F108445146C9B2090108449C
:101EC000317880F87F10072030704046616815FB3C
:101ED00009F21144C969029A1218914206DA60683F
:101EE00015FB09F10844C1690298081A109909689C
:101EF0004118109A1160616815FB09F211445246AD
:101F0000D2B212011144A1F87D00616815FB09F2FB
:101F100011445246D2B212011144327881F8802025
:101F20000021317081E01BF1010B5946C9B207292C
:101F30000ADA616815FB09F211445A46D2B211441B
:101F400091F871100329EED1616815FB09F2114473
:101F50005A46D2B201EBC201B1F8311080B28842C8
:101F600080F04B81606815FB09F10844C0690028C6
:101F700088D1606815FB09F108445146C9B20901CE
:101F8000084410990968C0F87910606815FB09F1D8
:101F900008445146C9B209010844317880F87F10DD
:101FA0003178606815FB09F21044008B401E41181F
:101FB00031703078082807DB10980068401C1099B1
:101FC0000860307808383070606815FB09F1084403
:101FD0005146C9B209010144D1F879001099096844
:101FE000081A401C616815FB09F211445246D2B22E
:101FF00012011144A1F87D00616815FB09F211443A
:102000005246D2B212011144327881F880203178E0
:10201000491C31703178082907DB10990968491C7F
:10202000109A116031780839317002994018029085
:10203000606815FB09F108445146C9B2090108441A
:10204000002180F88310606815FB09F108445146AF
:10205000C9B209010844022180F88410606815FBA8
:1020600009F108445146C9B209010844012180F828
:10207000851041F270700190606815FB09F1084409
:102080005146C9B2090108447930009010235046E6
:10209000C0B2020112F5C06292B2BDF80C10206805
:1020A00002F0EBFA4FF4947021699DF81820424336
:1020B000114422699DF8183000FB03F01044408C55
:1020C000401C4884606815FB09F10844006A002838
:1020D00031D1606815FB09F108445146C9B20901C4
:1020E0000144D1F87900616815FB09F21144059AA1
:1020F00010440862606815FB09F10844616815FB2B
:1021000009F211445246D2B21201114491F87F10E3
:1021100080F82410606815FB09F1084490F8243019
:10212000606815FB09F10844026A290009B2DFF86A
:10213000B40502F0E7FA1AF1010A5846C0B20728BE
:1021400080F28C80606815FB09F10844008BC01D8B
:10215000082190FBF1F00299814280F27F80514684
:10216000C9B2DFF8480502F0CDFA01E01BF1010B1E
:102170005846C0B207280ADA606815FB09F108441E
:102180005946C9B2084490F871000328EED1594667
:10219000C9B2DFF81C0502F0B5FA606815FB09F159
:1021A00008445146C9B209010844616815FB09F2A7
:1021B00011445A46D2B201EBC201B1F83110A0F875
:1021C0008110606815FB09F108445946C9B200EB5B
:1021D000C100B0F8331018FA81F8080080B217EB8C
:1021E000C007606815FB09F210445A46D2B200EBF2
:1021F000C200B0F83100081820E05946C9B2DFF833
:10220000B00402F07FFA606815FB09F108445946F2
:10221000C9B200EBC100B0F8331018FA81F8080019
:1022200080B217EBC007606815FB09F210445A46EC
:10223000D2B200EBC200B0F831000818616815FB9B
:1022400009F21144098B8F42BFF68CAE5946C9B2D0
:102250000729BFF687AE1BF1010B66E6606815FB28
:1022600009F1084480F804A107B0BDE8F08F000030
:10227000CCD40008C0D60008E4D50008D4D60008A5
:10228000E8D40008E8D600084CD100087CD100084A
:10229000ACD100082DE9F04F85B004000020039078
:1022A00000205FF0000A5FF0000BA06800680128C2
:1022B000C0F2F48115002800C0B26269904280F239
:1022C000ED8104912A00D2B20499DFF81C0402F0D7
:1022D00019FA4FF4947620692900C9B27143405825
:1022E0000390DDF80C9000208DF80800206929008B
:1022F000C9B2714308440021818320692900C9B211
:10230000714308440021418420692900C9B2714306
:102310000844002181842900C9B22000FFF7E6FAB1
:1023200001274EE010EB0B00834649E04FF49C710F
:1023300060683A0092B24A43104480882800C0B2D4
:1023400000280AD0280062683B009BB24B431A4425
:1023500092F80321C0B2904232D160683A0092B242
:1023600001FB02F10844008B002829D002A801904B
:1023700003A800903B001BB22A00D2B204992000AF
:10238000FFF75EFD0398B0EB09094846DDF80C90B5
:1023900010EB0B0140F2BB529142C3D321692A00DA
:1023A000D2B272431144524692B201EB8201C1F89B
:1023B00028B0514689B23F2902DA1AF1010A834650
:1023C0007F1CA0680068390089B28842AEDA9DF8A7
:1023D0000800002823D00398401C0390DDF80C90DF
:1023E00000208DF808001BF1010040F2BB5188422B
:1023F00013D320692900C9B271430844514689B2F8
:1024000000EB8100C0F828B0504680B23F2806DAC1
:102410001AF1010A5FF0010B01E01BF1010B2069C9
:102420002900C9B2714308440499816020692900D8
:10243000C9B2714308440399416020692900C9B2B7
:10244000714308441AF10101818320692900C9B24E
:1024500071430844A0F81EA020692900C9B2714345
:102460000844A0F820B02800C0B2002805D1049884
:102470006168086203986168C86101278EE010EB0B
:102480000B0083464DE04FF49C786068390089B2B8
:1024900008FB01F108448088ADF80A002800C0B2AA
:1024A00000280BD0280061683A0092B208FB02F2C3
:1024B000114491F80311C0B288426ED160683900AE
:1024C00089B208FB01F10844C08C002829D002A879
:1024D000019003A800903B001BB22A00D2B20499DD
:1024E0002000FFF76DFA0398B0EB09094846DDF8C4
:1024F0000C9010EB0B0140F2BB529142BFD321690B
:102500002A00D2B272431144524692B201EB8201C8
:10251000C1F828B0514689B23F2902DA1AF1010AFE
:102520008346390089B2200001F0F2F841F2707060
:10253000009004234FF49072BDF80A10206802F056
:10254000D6F86068390089B208FB01F1084490F8B8
:10255000020100280CD020692900C9B27143084447
:1025600021692A00D2B272431144897E491C8176C6
:1025700020692900C9B27143014420692A00D2B2FE
:1025800072431044028B60683B009BB208FB03F867
:102590004044B0F8000182180A837F1CA0680068DC
:1025A000390089B28842BFF66EAF9DF80800002856
:1025B00022D00398401C0390039800208DF8080057
:1025C0001BF1010040F2BB51884213D3206929005E
:1025D000C9B271430844514689B200EB8100C0F88A
:1025E00028B0504680B23F2806DA1AF1010A5FF09F
:1025F000010B01E01BF1010B20692900C9B27143F5
:102600000844514689B200EB8100C0F828B0206927
:102610002900C9B2714308441AF1010AA0F81CA0AC
:1026200020692900C9B271430844049922692B002A
:10263000DBB273431A4452681144016120692900D6
:10264000C9B271430144039A20692B00DBB2734382
:1026500018444068121ACA602800C0B200280BD182
:1026600004986168C96908446168C8620399606830
:10267000C069091A60688162039920692A00D2B290
:1026800072438058091ADFF8640002F03BF803989F
:102690002169EDB275434959401A00E0002005B0A8
:1026A000BDE8F08F7003012404D500084CD7000862
:1026B0005CD7000820D50008FCD6000880B50100D2
:1026C000C9B20B48FEF712F902BD80B50A00D2B2BA
:1026D00001000748FFF7DEFD02BD80B50021FFF7CE
:1026E000F4FF02BD8CD20008B4D200086CD70008F9
:1026F0000000002462F30F2262F31F42401810F022
:10270000030308D0C91A1FD3DB0748BF00F8012D07
:1027100028BF20F8022D130030B414461546103996
:1027200028BF20E93C00FAD8490728BF20E90C005F
:1027300048BF40F8042D890028BF20F8022D48BF6B
:1027400000F8012D30BC7047C91818BF00F8012DE2
:10275000CB0728BF00F8012D7047F0B4024610687F
:1027600095681318506803EB5004C0071DD54D44FD
:102770001BE013F8017B05F8017B491EF9D1A0B1DC
:10278000B60813F8011B06F00306032E08BF13F862
:10279000016B01EB06214942801C294405D011F848
:1027A000016B05F8016B401EF9D1A3420ED013F85E
:1027B000016B16F0030104BF13F8011BC91C30099B
:1027C0000F28DAD113F8010B0F30D6E7F0BC02F175
:1027D0000C00704738B504001825606A626AB2F9C7
:1027E000002012FB05F21044001D182201F0BAFF70
:1027F000606A616AB1F9001011FB05F1084401211A
:102800000173606A0088401C616A0880606AB0F9E0
:102810000000412802DB0020616A0880606AB0F98C
:102820000000616AB1F90210884204D1606A4088F0
:10283000401C616A4880606AB0F90200412802DBEE
:102840000020616A48800120E16A087031BD2DE9ED
:10285000F84388B005000E0017009846109C182118
:102860000022E9464846FFF745FF06A803F070F945
:10287000DDE90601CDE90001ADF80A60ADF80C70A4
:102880008DF80E800120E96A087003208DF80F0092
:10289000ADF8104069462800FFF79CFF09B0BDE87D
:1028A000F083F8B588B004000E001500182100224E
:1028B0006F463800FFF71EFF06A803F049F9DDE96F
:1028C0000601CDE90001ADF80A600020ADF80C006A
:1028D00000208DF80E0009208DF80F00ADF8105083
:1028E00069462000FFF776FF09B0F0BD2DE9F84FEB
:1028F00088B082460F0090469946129C139D149E04
:1029000018210022EB465846FFF7F4FE06A803F014
:102910001FF9DDE90601CDE90001ADF80A700020DC
:10292000ADF80C0000208DF80E0001208DF80F008E
:10293000ADF810808DF812908DF81340ADF814505A
:10294000ADF8166069465046FFF744FF09B0BDE890
:10295000F08F80B50022006803F077F902BD2DE901
:10296000F84384B004000F001500FF263800218CC6
:1029700080B2884208D04FF400710022D4F81C8045
:102980004046FFF7B7FE2784280080B2B0F5805F8D
:1029900079DA280080B24009290089B2020092B297
:1029A000B1EB4211E26980B252F82000C840C00782
:1029B00003D5A069ADB2465D65E04FF49C786068D0
:1029C000390089B208FB01F10844B0F804903900DD
:1029D00089B2200000F04DFE2E00B6B2760844F613
:1029E0002063320092B2494689B2200000F001FF14
:1029F000CDE902016068BFB208FB07F7384490F8E0
:102A0000FA0000280BD0082202A9A06933009BB26B
:102A100000EB4307380001F095FE08200DE0DDE9EA
:102A20000201009004226946A06933009BB200EBCA
:102A30004307380001F086FE0420310089B20909FD
:102A4000B6B276000A0092B2B6EB4216002215E04A
:102A5000E3690F00BFB253F827300127B7403B436B
:102A6000E7698C461FFA8CFC47F82C30761C330043
:102A70009BB2202B01DB0026491C521C8242E7DB63
:102A8000A069ADB2465D3000C0B205B0BDE8F083CC
:102A90002DE9F84305000E0017006968320092B274
:102AA0004FF49C70424301EB020090F8FB405FF052
:102AB0008008424692B2310089B22800FFF74FFFEA
:102AC000814618F101085FFA89F9424692B2310055
:102AD00089B22800FFF743FF18F10108C0B20002D5
:102AE00010FA89F035E0424692B2310089B22800EE
:102AF000FFF735FF814618F101085FFA89F9424670
:102B000092B2310089B22800FFF729FF18F10108BD
:102B1000C0B2000210FA89F080B2400000FA88F8D2
:102B2000424692B2310089B22800FFF718FF814671
:102B300018F101085FFA89F9424692B2310089B270
:102B40002800FFF70CFF18F10108C0B2000210FACC
:102B500089F001003A0089B292B2914205D0010099
:102B600089B24FF6FF729142BDD180B2BFB2B84276
:102B700001D05FF00008E4B2002C04D0310089B22B
:102B8000280000F0C5FD404600B2BDE8F2832DE903
:102B9000F84F04000D0016001F006168320092B269
:102BA0004FF49C70424301EB020090F8FB008DF85B
:102BB0000000A9460A22310089B22000FFF768FF11
:102BC0008346584680B2002856D0ADF802701BF1FB
:102BD000020B5A4692B2310089B22000FFF7BFFEC5
:102BE0001BF1010BC0B2BDF8021080B2884241D384
:102BF000012703E018EB0B08C3467F1CBDF8020059
:102C0000390089B2884231D35A4692B2310089B232
:102C10002000FFF7A4FE80461BF1010B5FFA88F845
:102C20003800BDF8021080B28842E3D3A9465FF0B5
:102C3000010A4046514680B289B28842DDD35046EF
:102C400080B2292802DB1BF1010B0CE05A4692B23C
:102C5000310089B22000FFF782FE1BF1010B89F8D9
:102C6000000019F101091AF1010AE2E7002089F8D0
:102C7000000001E0002028709DF80000002804D02A
:102C8000310089B2200000F043FDBDE8F18F2DE94D
:102C9000F04105000E0017006968320092B24FF44F
:102CA0009C70424301EB020090F8FB400020B8709A
:102CB0000020F87000203871002078710020B87171
:102CC0002822310089B22800FFF7E2FE38803888D8
:102CD000002845D0B7F80080424692B2310089B250
:102CE0002800FFF73CFE18F10108B870424692B286
:102CF000310089B22800FFF732FE18F10108B878D8
:102D0000B870B878C0B24000B870424692B2310094
:102D100089B22800FFF723FE18F10108F870424637
:102D200092B2310089B22800FFF719FE18F10108AC
:102D30003871B878032813DB424692B2310089B269
:102D40002800FFF70CFE18F101087871424692B294
:102D5000310089B22800FFF702FE18F10108B871AE
:102D6000E4B2002C04D0310089B2280000F0D0FC7D
:102D7000B87880B2BDE8F0812DE9F84305000E0077
:102D800017006968320092B24FF49C70424301EB25
:102D9000020090F8FB400020B8702922310089B26F
:102DA0002800FFF775FE38803888002879D0B7F8FA
:102DB0000080424692B2310089B22800FFF7CFFD71
:102DC000814618F101085FFA89F9424692B2310052
:102DD00089B22800FFF7C3FD18F10108C0B2000254
:102DE00010FA89F080B2042190FBF1F0B8704246ED
:102DF00092B2310089B22800FFF7B1FD18F1010845
:102E0000C0B2B880424692B2310089B22800FFF7C2
:102E1000A6FD18F10108B988C0B200024018B880B8
:102E2000424692B2310089B22800FFF798FD18F1AE
:102E30000108C0B2F880424692B2310089B228003F
:102E4000FFF78DFD18F10108F988C0B200024018A3
:102E5000F880424692B2310089B22800FFF77FFD28
:102E600018F101083872424692B2310089B2280046
:102E7000FFF775FD18F101087872424692B23100F1
:102E800089B22800FFF76BFD18F10108B8724246BD
:102E900092B2310089B22800FFF761FD18F10108F4
:102EA000F872E4B2002C04D0310089B2280000F09E
:102EB0002FFCB87880B2BDE8F2832DE9F04105001F
:102EC0000E0017005FF000086968320092B24FF4FC
:102ED0009C70424301EB020090F8FB401800B97867
:102EE00080B289B2884262D2B7F800809BB218EBF8
:102EF000C30818F10208424692B2310089B2280094
:102F0000FFF72DFD18F10108C0B2B880424692B219
:102F1000310089B22800FFF722FD18F10108B988B5
:102F2000C0B200024018B880424692B2310089B265
:102F30002800FFF714FD18F10108C0B2F8804246DE
:102F400092B2310089B22800FFF709FD18F101089B
:102F5000F988C0B200024018F880424692B23100AF
:102F600089B22800FFF7FBFC18F1010838724246CD
:102F700092B2310089B22800FFF7F1FC18F1010884
:102F80007872424692B2310089B22800FFF7E7FC1E
:102F900018F10108B872424692B2310089B2280095
:102FA000FFF7DDFC18F10108F8725FF00108E4B2E8
:102FB000002C04D0310089B2280000F0A9FB404663
:102FC00080B2BDE8F0812DE9F84F04000D00160035
:102FD00061682A0092B24FF49C70424301EB0200F8
:102FE00090F8FB008DF8000000270020B080002042
:102FF000708000203081002007E00021020092B2A2
:1030000006EB4202A2F8061C401C010089B2082906
:10301000F3DB1800C0B2022800DB0123DBB232333D
:103020001A0092B2290089B22000FFF731FD3080EA
:103030003088002800F0D380B6F800B05A4692B22B
:10304000290089B22000FFF78AFC80461BF1010BA2
:103050005FFA88F85A4692B2290089B22000FFF739
:103060007EFC1BF1010BC0B2000210FA88F07080E8
:103070005FF0010AB088401CB0805A4692B2290025
:1030800089B22000FFF76BFC1BF1010BB18806EB46
:103090004101C0B2C8805A4692B2290089B22000CC
:1030A000FFF75DFC1BF1010BB18806EB4101B28813
:1030B00006EB4202D288C0B2000210FA82F0C88049
:1030C000B08806EB40000021A0F806181AF1010AAA
:1030D0005A4692B2290089B22000FFF740FC804690
:1030E0001BF1010B5FFA88F85A4692B2290089B2A7
:1030F0002000FFF734FC1BF1010BB18806EB410106
:10310000C0B2A1F806041BF1040B1AF1020AB08840
:1031100006EB4000B0F80604082846DA5FF0010923
:103120001CE01AF1040A1BF1050B5A4692B2290061
:1031300089B22000FFF713FC1BF1010BB18806EBED
:103140004101B28806EB4202B2F8062852FA80F03A
:10315000A1F806081BF1020B19F101094046494686
:1031600080B289B28842DCD2B08806EB4000B0F869
:10317000060406EB4001B08806EB4000B0F80604F8
:1031800006EB4000B0F8062CB08806EB4000B0F823
:1031900006088218A1F8062CB08806EB4000B0F8AB
:1031A0000608C7191AF1010A0CE0404680B28000F7
:1031B00010FA8AFA1FFA88F85FEAC80010FA8BFB47
:1031C0001AF1010AB08840F2FF11884201DBB6F81B
:1031D00002A05046718880B28842FFF44BAF9DF840
:1031E0000000002804D0290089B2200000F090FAE5
:1031F000BFB23800BDE8F28F1FB50A0092B2002AB4
:1032000014D1436889B24FF49C725143595AADF8B6
:10321000081041F27071019102A9009102234FF44C
:1032200090720021006801F0A8F815E04FF49C723C
:1032300043680C00A4B2544323449C8841F2707349
:103240000093436889B251435B5A4FF49072210056
:1032500089B2006801F04BFA04B010BD2DE9F043CB
:1032600087B004000D001600A0680068290089B22C
:10327000884201DA002060E0190005A802F081FC14
:103280004FF49C776068290089B279430844B0F80C
:103290000480280080B200280FD10020ADF808007B
:1032A0004FF4FA60019002A8009002234FF4987244
:1032B0000021206801F09BF81EE00020ADF80C0012
:1032C0000020ADF810004FF4FA60019003A80090C0
:1032D00006234FF49872414689B2206801F02DF917
:1032E000BDF80C00ADF808006068290089B2794388
:1032F0000844BDF810104180BDF8089019F00F097E
:103300004846310080B289B2884203D04FF47A70C7
:1033100002F012FC4846310080B289B2884204D0E3
:1033200005A802F05FFC0028B3D06068ADB27D4311
:10333000BDF808104153484680B207B0BDE8F0839D
:10334000401C0100C9B2082900DB0120C0B270474F
:1033500010B5040040F2CE5100222000FFF7CAF958
:1033600010BDF0B585B004000E001500290003A8BB
:1033700002F007FC6168B6B24FF49C70464301EB63
:103380000600868800208DF808004FF4FA6001904E
:1033900002A80090012340F60502310089B220689E
:1033A00001F0CBF807009DF80800000704D5C92DEF
:1033B00002DBC82002F0C0FB012F03DB9DF80800F0
:1033C000000704D503A802F00DFC0028DAD0012F75
:1033D00005DB9DF80800000701D4012000E0002073
:1033E00005B0F0BD2DE9FE4304000D0016000020DD
:1033F0004FF49C7761682A0092B27A431144B1F885
:10340000048061682A0092B27A431144B1F8BE90F8
:10341000494689B2002921D0494689B240F2CF52AB
:1034200091421BDA1A00290089B22000FFF799FFA8
:10343000002812D06068ADB27D432844B0F8C020A7
:1034400041F27070019000964B469BB292B2414699
:1034500089B2206801F011F900E00020BDE8FE8388
:103460002DE9F04F89B004000D00924600264FF47C
:103470009C7B6068290089B20BFB01F108448788B6
:103480006068290089B20BFB01F10844B0F8C280E2
:10349000404680B2002800F0E880404680B240F20A
:1034A000CF51884280F2E1800593059906A802F089
:1034B00068FB00200020ADF80C0040F60D094FF429
:1034C000FA60019003A8009002234A46390089B2AD
:1034D000206801F032F80600BDF80C00000705D4A2
:1034E0000598C92802DBC82002F026FB012E03DB69
:1034F000BDF80C00000704D406A802F073FB0028F6
:10350000D8D0012EC0F2B080BDF80C0010F0080039
:103510000128C0F2A980CDF810A06068290089B206
:103520000BFB01FB5844B0F8C4A0049808904FF47A
:10353000FA6001900498009043469BB2524692B2C2
:10354000390089B2206800F0F8FF0600012E0DDB7B
:103550000898407910F00F0F08D1049802892900CB
:1035600089B22000FFF79DF9002675E0012E1CDBD3
:103570000898407910F00F00032816D10498C188EC
:1035800089B2090B89B2012966D1C1890291818969
:103590000191C17A0091837A9BB20289290089B294
:1035A0002000FFF7A3F9002656E0012E54DABDF8FB
:1035B0000C0090F40070ADF80C004FF4FA6001902C
:1035C00003A8009002234A46390089B2206801F01E
:1035D00054F84FF4FA6001900DF10E0000900123B1
:1035E00040F60F02390089B2206800F0A6FF0128DA
:1035F0000ADB9DF80E0010F00200BDF80C10091255
:1036000011F00201884204D006A802F0EBFA00286B
:10361000DFD04FF4FA60019003A8009002234A46DD
:10362000390089B2206800F088FF8346BDF80C009D
:10363000000705D40598C92802DBC82002F07CFAEF
:10364000BBF1010F03DBBDF80C00000704D406A892
:1036500002F0C8FA0028DCD0012E06DA06A802F033
:10366000C1FA002801D162E70026300009B0BDE8A8
:10367000F08F2DE9FF4104000D00012000264FF4DA
:103680009C7761682A0092B27A43114491F8FB104A
:1036900000293AD06068290089B279430844B0F81B
:1036A000048002208DF808004FF4FA60019002A80F
:1036B000009001234FF4A062414689B2206800F0D7
:1036C000DCFF012803DA3000461C0328ECDB002075
:1036D0008DF8080000264FF4FA60019002A80090CF
:1036E00001234FF4A062414689B2206800F0C5FF73
:1036F000012803DA31004E1C0329ECDB6168ADB20E
:103700007D432944002281F8FB2004B0BDE8F0810C
:103710002DE9FF4104000D00012000274FF49C76A5
:1037200061682A0092B27243114491F8FB1000299B
:1037300023D16068290089B271430844B0F804803D
:1037400001208DF808004FF4FA60019002A8009063
:1037500001234FF4A062414689B2206800F08DFF3A
:10376000012803DA39004F1C0329ECDB6168ADB294
:1037700075432944012281F8FB2004B0BDE8F081A3
:103780002DE9FF4104000D0016005FF0000800273E
:10379000190002A802F0F5F9404610F101080028CE
:1037A00002D0C82002F0C8F9002030804FF4FA603F
:1037B00001900096022340F20252290089B220684B
:1037C00000F0BBFE31883180012804DB308810F422
:1037D0000040012804DB02A802F004FA0028DBD034
:1037E0003088000400D40127380080B204B0BDE85E
:1037F000F0812DE9F84388B004000D0017001E0089
:103800005FF0000800200021CDE9060100200390B0
:10381000330002AA290089B22000FFF7B1FF002877
:1038200000F08B80BDF8080010F4F04F0FD000209E
:10383000ADF8080041F27070019002A800900223D8
:1038400040F20252290089B2206800F016FF4FF4BE
:103850008070ADF81000ADF812700020ADF81400C3
:103860005FF000094FF4FA60019004A8009006236D
:1038700040F20252290089B2206800F0FEFE0128C1
:1038800004DA494611F101090329EBDB002850D085
:10389000C82002F051F90020ADF80800330002AA58
:1038A000290089B22000FFF76BFF002841D0BDF846
:1038B0000800800406D518F101084FF47A7002F070
:1038C0003BF936E05FF00008BDF80800400616D569
:1038D0005FF000094FF4FA60019006A800900823F9
:1038E0004FF4A162290089B2206800F026FE012869
:1038F0001FDA484610F101090328EBDB19E05FF0FD
:1039000000094FF4FA60019003A8009004234FF4DB
:10391000A162290089B2206800F00FFE012804DAB4
:10392000484610F101090328EBDB03980021CDE99B
:103930000601B8F10100022889D3DDE9060109B0CA
:10394000BDE8F083F0B585B004000E001700002537
:10395000310089B22000FFF78CFE6168B6B24FF4E7
:103960009C70464301EB0600868844F6206302AA59
:10397000310089B22000FFF703FF002830D0BDF8E6
:10398000080010F4F04F0FD00020ADF8080041F20D
:103990007070019002A80090022340F202523100A0
:1039A00089B2206800F069FE4FF48070ADF80C0019
:1039B000ADF80E700020ADF810004FF4FA600190E1
:1039C00003A80090062340F20252310089B2206819
:1039D00000F053FE012803DA2800451C0328ECDB25
:1039E00005B0F0BD7FB5040013000025626889B200
:1039F0004FF49C70414302EB010086880020039045
:103A00000020ADF8080002AA310089B22000FFF7BB
:103A1000B7FE002812D04FF4FA60019003A800907E
:103A200004234FF4A162310089B2206800F085FDC3
:103A3000012803DA2800451C0328ECDB039804B0B6
:103A400070BD30B4846A2478102C16DA846A856AD2
:103A50002D782C44A170816A846A247801EB84015A
:103A60004A61816A826A127801EB4201A1F85430FE
:103A7000816A0978491C806A017030BC7047010076
:103A80005FF0FF308A6A52788B6A1B789A4206D2BE
:103A9000886A40788A6A5278521C896A4A707047EC
:103AA0000021826A11700021806A417070472DE9FF
:103AB000F04F89B005000E005FF000080020ADF85F
:103AC0001400002008904FF4947728693100C9B29F
:103AD00079430844007D002801D05FF00108D2B28C
:103AE000012A22D128693100C9B279430844C0684B
:103AF00029693200D2B27A4311444968884206D219
:103B000028693100C9B279430844446805E028694E
:103B10003100C9B279430844C46828693100C9B288
:103B200079430844406807900EE028693100C9B223
:103B300079430844446828693100C9B2794308448C
:103B4000C06804190020079028693100C9B2794380
:103B500050F80190002C00F02A820120089028697A
:103B60003100C9B279430844807E002800F07C818E
:103B700028693100C9B279430844C068002800F0C0
:103B8000C58028693100C9B279430844B0F81EA045
:103B900028693100C9B279430844046928693100B1
:103BA000C9B279430844C068059028693100C9B298
:103BB00079430844406810EB0909CDF81890504645
:103BC00029693200D2B27A431144C98B80B288424B
:103BD00015D128693100C9B279430844514689B2E8
:103BE00000EB8100D0F8289028693100C9B27943F0
:103BF0000844008CB9EB00091AF1010A0CE02869AD
:103C00003100C9B279430844514689B200EB8100C2
:103C1000D0F828901AF1010A286802F0B8F8834613
:103C200006980699090C03944A4692B2029289B208
:103C3000019180B200905B46DBB20A222968DC4623
:103C40005FFA8CFC40F2EE5000FB0CFC01EB0C0028
:103C500046F274510144286800F0FCFA4046C0B2B4
:103C600000282ED0A5F83290686B049008200390AD
:103C70004FF411600290696828693200D2B27A4329
:103C80001044C28A4FF49C70424301EB02008088CA
:103C90000190002000905B46DBB20E222968DC46D2
:103CA0005FFA8CFC40F2EE5000FB0CFC01EB0C00C8
:103CB00046F274510144286800F002FB28865FF048
:103CC00000085946C9B2286802F0B9F8484603000E
:103CD0009BB222005946C9B22800FFF7B2FE0598F0
:103CE000B0EB09000590069819EB000006904C44D3
:103CF000059800280AD0504629693200D2B27A438A
:103D00001144898B80B28842FFF459AF2869310091
:103D1000C9B2794308444068002800F04881286906
:103D20003100C9B279430844D0F8089028693100BD
:103D3000C9B279430844446828693100C9B279435B
:103D4000405806900020ADF8140028693100C9B22F
:103D500079430844BDF8141000EB8100D0F828A086
:103D6000BDF81400401CADF81400B4EB0A000028A4
:103D700000D5A246286802F00AF8834606980699FC
:103D8000090CCDF80C90524692B2029289B2019180
:103D900080B200905B46DBB20B222968DC465FFAFA
:103DA0008CFC40F2EE5000FB0CFC01EB0C0046F2E8
:103DB00074510144286800F04DFA4046C0B2002812
:103DC0002ED0A5F832A0686B0490082003904FF421
:103DD00011600290696828693200D2B27A431044B7
:103DE000C28A4FF49C70424301EB0200808801902C
:103DF000002000905B46DBB20E222968DC465FFAA9
:103E00008CFC40F2EE5000FB0CFC01EB0C0046F287
:103E100074510144286800F053FA28865FF00008C6
:103E20005946C9B2286802F00AF8504603009BB20E
:103E30004A465946C9B22800FFF703FEB4EB0A040C
:103E400006981AEB00000690D144002C00F0AF80D9
:103E5000BDF8140029693200D2B27A431144898B2B
:103E60008842FFF472AFA2E028693100C9B27943F9
:103E700008444068002807D028693100C9B2794356
:103E80000844D0F808A008E028693100C9B2794395
:103E90000844D0F810A00020079028693100C9B26A
:103EA00079430844BDF8141000EB8100806A069045
:103EB000BDF81400401CADF81400286801F067FF3D
:103EC000834648464946090CCDF80CA0069A92B2A2
:103ED000029289B2019180B200905B46DBB20C2263
:103EE0002968DC465FFA8CFC40F2EE5000FB0CFCCB
:103EF00001EB0C0046F274510144286800F0AAF965
:103F00004046C0B200282ED006986886686B0490A0
:103F1000082003904FF4116002906968286932000C
:103F2000D2B27A431044C28A4FF49C70424301EBF0
:103F3000020080880190002000905B46DBB20E22D8
:103F40002968DC465FFA8CFC40F2EE5000FB0CFC6A
:103F500001EB0C0046F274510144286800F0B0F9FE
:103F600028865FF000085946C9B2286801F067FF4B
:103F7000069803009BB207980AEB00025946C9B2A3
:103F80002800FFF75EFD0698241A069810EB090931
:103F900006988244002C0AD0BDF81400296932002A
:103FA000D2B27A431144898B8842FFF476AF0898E5
:103FB00009B0BDE8F08F80B50022C9B2FFF777FDE8
:103FC00002BD2DE9F84F84B0040017000025002041
:103FD000ADF800005FF0000B00262269C9B24FF473
:103FE0009470414302EB0100007D002800D00126BF
:103FF0002000FFF744FD824601973CE015EB4805A1
:104000002EE0206809FB07F1084490F822000B28F5
:1040100028D13000C0B20028F0D00222206809FB6D
:1040200007F10844618E084410F12C016D46280008
:1040300000F088FBBDF8000045000822206809FB5D
:1040400007F94844218E084410F1200102AE3000E7
:1040500000F078FBDDE90201626BC2E90001002695
:104060005FF0010B00223900206801F0BDFE200046
:10407000FFF705FD8246BAF1000F6CD4A06A5044E8
:104080008778019AA06A50448178206802F091F8FC
:104090008046B8F1000FE5D440F2EE59206809FBE4
:1040A00007F1084490F822000A2807D0206809FB8D
:1040B00007F1084490F822000C28A2D13000C0B2C9
:1040C000002830D0628E206809FB07F1084410F107
:1040D0002C01A06A00EB8A004569280000F032FB41
:1040E0000222206809FB07F10844618E084410F1A0
:1040F0002C016D46280000F025FBBDF80050082279
:10410000206809FB07F94844218E084410F120017A
:1041100002AE300000F016FBDDE90201626BC2E97D
:104120000001002614E0A06A00EB4A00B0F8542019
:10413000206809FB07F9484410F12C01A06A00EB44
:104140008A00D0F81490484600F0FCFA18EB0505F8
:104150005FF0010B86E72000FFF7A2FCBBF1000F28
:1041600002D15FF0FF3000E0280005B0BDE8F08F1D
:1041700080B501001248FEF7ECFB02BD80B50100DE
:1041800089B20F48FFF738F802BD80B513000A0066
:1041900092B2010089B20A48FFF760F802BD80B50B
:1041A0000100C9B20648FFF706FF02BD80B50A004C
:1041B0000100C9B20248FFF704FF02BD0000000081
:1041C0000000002480B50020FFF7E9FF02BD80B5A4
:1041D00001000020FFF7EAFF02BD30B4002513E024
:1041E00050F8042BD30744BFA9F101039A18091F03
:1041F000042942F8045BFAD213468C0744BF1580A9
:104200009B1CC90748BF1D7050F8041B0029E7D14B
:1042100030BC704738B505001400200080B200287B
:1042200017D0C9B2002907D0012905D0042903D02D
:10423000072901D00A2906D1A4B2002221002800B2
:10424000FEF758FA05E0A4B222001900280000F099
:1042500079FA31BDF8B505000F0011001E00069A6D
:104260000798089C099B17F10E0C04F5805E1EF15F
:104270000C0EACF800E08CF802108CF80360ACF87F
:104280000420ACF80600ACF80840220092B2C9B293
:1042900017F11A00FFF7BEFF0020210089B2394450
:1042A00088760020210089B23944C876A4B21C3433
:1042B000F6B205EB86004CF2544144500020F2BDAA
:1042C0002DE9F0470700160098460898099A0A9BBE
:1042D0000B9C0D004CF254494146C9B207EB8101D9
:1042E00051F809A015F10E0CBCF800E014F10C0116
:1042F00011EB0E0EACF800E0BCF8081051F40041D0
:10430000ACF80810514689B22944891E8E7081F894
:1043100003808A80CB80C0B2002803D054F40040D0
:10432000088100E00C810C9B220092B23100C9B2DE
:10433000504680B228440A30FFF76CFF200080B25C
:1043400010FA8AF0284400218172200080B210FA0D
:104350008AF028440021C1725FFA88F807EB8800D0
:10436000A4B214FA8AF10C3140F809101FFA8AFA43
:10437000BAF1040A5046BDE8F0872DE9FF47040072
:104380000F0090469946DDF830A00D9E200001F008
:10439000FEFC0500CDF80CA01FFA89F9CDF80890B5
:1043A0001FFA88F8CDF80480BFB200972B00DBB26B
:1043B00008222900C9B240F2EE50414304EB01004B
:1043C00046F2745101442000FFF744FF32002900F7
:1043D000C9B2200001F004FF06000022EDB229005E
:1043E000200001F001FD300004B0BDE8F0872DE9A8
:1043F000F84F84B00600884692461C000E9DDDF8FA
:104400003CB0300001F0C3FC070040F2EE590395C8
:10441000200080B202901FFA8AFACDF804A01FFA99
:1044200088F8CDF800803B00DBB207223800C0B22C
:1044300009FB00F0304446F2745101443000FFF7AC
:1044400009FF5A463900C9B2300001F0C9FE804662
:10445000B8F1010F0CDBA4B222003800C0B209FB96
:1044600000F906EB090010F12C01280000F06AF9B0
:104470000022FFB23900300001F0B6FC404605B022
:10448000BDE8F08F2DE9F84F84B0060088469246CB
:104490001C000E9DDDF83CB0300001F078FC0700F8
:1044A00040F2EE590395200080B202901FFA8AFA7A
:1044B000CDF804A01FFA88F8CDF800803B00DBB2ED
:1044C00001223800C0B209FB00F0304446F27451BA
:1044D00001443000FFF7BEFE5A463900C9B2300031
:1044E00001F07EFE8046B8F1010F0CDBA4B2220081
:1044F0003800C0B209FB00F906EB090010F12C01ED
:10450000280000F01FF90022FFB23900300001F04E
:104510006BFC404605B0BDE8F08F1FB50024ADF838
:104520000840019302AB0093022392B289B2FFF7D5
:10453000A9FFBDF8080004B010BD2DE9F84F84B004
:104540000600884692461C000E9DDDF83CB0300007
:1045500001F01DFC070040F2EE590395200080B2E7
:1045600002901FFA8AFACDF804A01FFA88F8CDF855
:1045700000803B00DBB204223800C0B209FB00F02F
:10458000304446F2745101443000FFF763FE5A464E
:104590003900C9B2300001F023FE8046B8F1010FA6
:1045A0000CDBA4B222003800C0B209FB00F906EB14
:1045B000090010F12C01280000F0C4F80022FFB21D
:1045C0003900300001F010FC404605B0BDE8F08F26
:1045D0001FB50024ADF80840019302AB00930223FD
:1045E00092B289B2FFF7A9FFBDF8080004B010BD70
:1045F0002DE9FF4704000F0090469946DDF830A0F2
:104600000D9E200001F0C3FB0500CDF80CA01FFAA1
:1046100089F9CDF808901FFA88F8CDF80480BFB268
:1046200000972B00DBB202222900C9B240F2EE5003
:10463000414304EB010046F2745101442000FFF7AE
:1046400009FE32002900C9B2200001F0C9FD0600B0
:104650000022EDB22900200001F0C6FB300004B0BA
:10466000BDE8F0870EB5049B019302AB00930223D3
:1046700092B289B2FFF7BCFF0EBD2DE9FF470400DF
:104680000F0090469946DDF830A00D9E200001F005
:104690007EFB0500CDF80CA01FFA89F9CDF8089033
:1046A0001FFA88F8CDF80480BFB200972B00DBB268
:1046B00005222900C9B240F2EE50414304EB01004B
:1046C00046F2745101442000FFF7C4FD3200290076
:1046D000C9B2200001F084FD06000022EDB22900DD
:1046E000200001F081FB300004B0BDE8F0870EB57A
:1046F000049B019302AB0093022392B289B2FFF7AD
:10470000BCFF0EBD0EB4C0B5024603A80021019047
:10471000009101AB0121044878440C3001F096FD72
:1047200006BC5DF810FB00BF4D8F00005FEA000C77
:1047300011F8012B00F8012B12B111F8012BF9E748
:104740006046704762B38B0708D0521E11F8013BD8
:1047500000F8013B00F024808B07F6D1830740F07E
:10476000208000BF103A07D330B4B1E83810103AB7
:10477000A0E83810F9D230BC530724BFB1E80810C4
:10478000A0E8081044BF51F8043B40F8043BD207AE
:1047900024BF31F8022B20F8022B44BF0B780370A2
:1047A0007047121F17D35B0009D151F8043B20F862
:1047B000023B1B0C121F20F8023BF6D20BE051F813
:1047C000043B00F8013B1B0A20F8023B1B0C121FA4
:1047D00000F8013BF3D238BF121D521E24BF11F85E
:1047E000013B00F8013BF8D870470268531C036096
:1047F000117070470CB430B583B00A4606A9029117
:10480000044600250194009502AB01A908487844AC
:104810001E3001F01BFD019A157000284EBF0446A2
:104820000198041B204603B030BC5DF80CFB00BFB0
:10483000BBFFFFFF2DE9F84388B004000D00160010
:104840001F00DDF8408018210022E9464846FDF7A8
:1048500051FF06A801F07CF9DDE90601CDE9000170
:10486000ADF80A50ADF80C608DF80E700120E16AC9
:10487000087000208DF80F00CDF8108069462000E8
:10488000FDF7A8FF09B0BDE8F0832DE9F04FADF5C5
:10489000306DABB005000E0092469846DDF8D04B67
:1048A000FFA8FF30E130FEF753FD0023FFAAFF32DF
:1048B000E132310089B22800FEF7D2FD03A8FEF7ED
:1048C00047FDFFAFFF37E1370DF10C090A20A9F8CA
:1048D00000000020A9F80200002089F8040069689F
:1048E000320092B24FF49C70424301EB020090F808
:1048F000C800FEF725FD6A6833009BB24FF49C7137
:104900004B4302EB030181F8C800C0B20001C01C98
:1049100089F805004FF40050A9F806002000C0B245
:10492000002803D0502089F8080002E0402089F8D0
:104930000800ADF804A0BDF80400A9F80900E4B22D
:10494000002C05D04046C0B2022801DB5FF0010810
:1049500089F80B800020C9F80C0044F6206303AAF4
:10496000310089B22800FEF73DFD8246BAF1010F01
:10497000C0F26C81FFA8FF30E130FEF7E9FCDDF802
:10498000DC3BFFAAFF32E132310089B22800FEF79A
:1049900067FD8246BAF1010FC0F25881787910F0B4
:1049A0000F00032840F03681F88880B2000B80B2F7
:1049B000032840F02F81B7F80900B9F809108842A0
:1049C00040F02881DDF8D89B387A10F002000128E9
:1049D00025DB387AC0F38104D4F10404DDF8D40B6C
:1049E0000068210089B288420BDB220092B217F1E5
:1049F0000C014846FFF7A6FEA4B2DDF8D40B046014
:104A000024E15FF0000A032000904346DBB2BDF8CA
:104A10000420310089B22800FDF719FF16E1FC6877
:104A2000DDF8D40B0068A042C0F2E6804846398821
:104A3000B1F10A0B594689B2A14280F2D2805A469E
:104A400092B217F110014C462000FFF77BFE58464A
:104A500080B2484402901FFA8BFBDDF8D40BC0F8FB
:104A600000B001245FF000091EE0012000904346E1
:104A7000DBB2BDF80420310089B22800FDF7E7FE63
:104A80000EE00024387A8028EFD1F8680090434681
:104A9000DBB2BDF80420310089B22800FFF7CAFE5E
:104AA0005FF0000A99F010092000C0B2002800F061
:104AB000CD800DF10C0A0A20AAF800000020AAF807
:104AC000020000208AF804004FF49C7B68683100E3
:104AD00089B20BFB01F1084490F8C800FEF730FCE6
:104AE0006968320092B20BFB02FB594481F8C8009E
:104AF000C0B20001C01C8AF805004FF40050AAF8AB
:104B0000060019F160008AF80800BDF80400AAF850
:104B100009008AF80B800020CAF80C0044F62063D4
:104B200003AA310089B22800FEF75CFC8246BAF184
:104B3000010FB7DBFFA8FF30E130FEF709FCDDF81D
:104B4000DC3BFFAAFF32E132310089B22800FEF7D8
:104B500087FC8246BAF1010FA4DB787910F00F00D0
:104B600003288ED1F88880B2000B80B2032888D148
:104B7000387A10F0E00F84D13888B0F1030B387A1E
:104B800010F00100012814DB0024584680B20728E9
:104B900004D1387AC0F34200BBEB000B5A4692B204
:104BA00017F10901029800900098FFF7CBFD0098DB
:104BB0000EE05A4692B217F109010298009000984F
:104BC000FFF7C0FD00980298594689B20844029048
:104BD000DDF8D40B006810FA8BF0DDF8D41B086008
:104BE00060E7220017F1100105002800FFF7AAFD79
:104BF000DDF8D40B046029E05FF0000A0320009088
:104C00004346DBB2BDF80420310089B22800FDF72D
:104C10001EFE1BE0387A80280BD1F86800904346CE
:104C2000DBB2BDF80420310089B22800FFF702FE94
:104C30000AE0012000904346DBB2BDF804203100B9
:104C400089B22800FDF703FE5FF0000A50460DF51B
:104C5000306D2BB0BDE8F08F2DE9F64FADF5306D1E
:104C6000ABB005000E001F00DDF8DCBBFFA8FF3075
:104C7000E130FEF76DFB0023FFAAFF32E132310085
:104C800089B22800FEF7ECFB03A8FEF761FB0DF5E7
:104C90007F7818F1FF0818F1E1080DF10C09696837
:104CA000320092B24FF49C70424301EB0200B0F824
:104CB000BEA0BAF1100ABBF1050F80F296809DF8F4
:104CC000D80B002840F091800A20A9F800000020AD
:104CD000A9F80200002089F804004FF49C74686869
:104CE000310089B26143084490F8C800FEF728FB00
:104CF0006968320092B204FB02F4214481F8C800D2
:104D0000C0B20001C01C89F805004FF40050A9F89A
:104D10000600DBF10400800010F00C0050F02300CE
:104D200089F80800BDF8B00BA9F8090089F80B70E4
:104D3000DDF8E01B5A4619F10C042000FFF702FDD4
:104D400044F6206303AA310089B22800FEF74AFB2B
:104D50000128C0F2D281FFA8FF30E130FEF7F8FA57
:104D6000DDF8E43BFFAAFF32E132310089B22800CE
:104D7000FEF776FB0128C0F2C08198F8051011F00B
:104D80000F01032913D1B8F8061089B2090B89B2B3
:104D900003290CD1B8F80910B9F80920914206D1BD
:104DA00098F80B1099F80B20914200F0A68198F822
:104DB000080080280CD1D8F80C0000903B00DBB232
:104DC000BDF8B02B310089B22800FFF733FD0AE0AF
:104DD000012000903B00DBB2BDF8B02B310089B25E
:104DE0002800FDF734FD002087E15846ADF80000AB
:104DF0000024BDF80000824503DA5046ADF80000FB
:104E00000124BDF800000A30A9F800000020A9F82C
:104E10000200002089F804006968320092B24FF461
:104E20009C70424301EB020090F8C800FEF788FA3C
:104E30006A6833009BB24FF49C714B4302EB030151
:104E400081F8C800C0B20001C01C89F805004FF409
:104E50000050A9F806009DF8D80B002803D0312097
:104E600089F8080002E0212089F80800BDF8B00B9D
:104E7000A9F8090089F80B709DF8D80B002806D016
:104E80003800C0B2022802DB012089F80B00C9F803
:104E90000CB0DDF8E00B0190BDF80020019919F18C
:104EA000100002900298FFF74DFC02980198BDF89F
:104EB000001008440190BDF80000BBEB000BCDF8DA
:104EC000DCBB44F6206303AA310089B22800FEF758
:104ED00089FA0128C0F21181FFA8FF30E130FEF706
:104EE00037FADDF8E43BFFAAFF32E132310089B244
:104EF0002800FEF7B5FA0128C0F2FF8098F80510E7
:104F000011F00F01032940F0DB80B8F8061089B2D8
:104F1000090B89B2032940F0D380B8F80910B9F819
:104F20000920914240F0CC8098F80B1099F80B20A2
:104F3000914240F0C5801AF1070ACDF808A05FF051
:104F4000000992E0012000903B00DBB2BDF8B02BDD
:104F5000310089B22800FDF77AFC82E01AF10300E3
:104F6000ABF800000020ABF8020000208BF8040032
:104F70006968320092B24FF49C70424301EB020028
:104F800090F8C800FEF7DCF96A6833009BB24FF472
:104F90009C714B4302EB030181F8C800C0B20001D1
:104FA000C01C8BF805004FF40050ABF806009BF8CE
:104FB000080019EB00008BF80800524692B20199E4
:104FC0001BF1090B5846FFF7BDFB0198514689B20A
:104FD00008440190DDF8DC0B1FFA8AFAB0EB0A0AEC
:104FE000CDF8DCAB44F6206303AA310089B2280077
:104FF000FEF7F8F9012836DBFFA8FF30E130FEF7B5
:10500000A7F9DDF8E43BFFAAFF32E132310089B2B3
:105010002800FEF725FA012825DB98F8051011F085
:105020000F0103290CD1B8F8061089B2090B89B217
:10503000032905D198F8081011F0E001202912D0B9
:1050400098F8080080287FF47DAFD8F80C00009015
:105050003B00DBB2BDF8B02B310089B22800FFF76E
:10506000E9FB0020002499F01009E4B2002C44D0A0
:105070000DF10C0BDDF8DCAB002401208BF80800EF
:105080000298514689B2884205DADDF808A0012469
:1050900000208BF808002000C0B200287FF45EAF2B
:1050A000504680B20728BFF659AF0A20ABF800007F
:1050B000504680B2404240000F308BF8080051E764
:1050C00098F8080080280CD1D8F80C0000903B001C
:1050D000DBB2BDF8B02B310089B22800FFF7AAFB84
:1050E0000AE0012000903B00DBB2BDF8B02B31009C
:1050F00089B22800FDF7ABFB00200DF5306D2DB017
:10510000BDE8F08F2DE9F44F88B004000D000027B2
:10511000022005900020ADF81000DFF8F06503963E
:1051200004A8029005A80190002000900023BDF87B
:105130002020290089B22000FFF7A7FB012877DB98
:10514000BDF81000002873D0BDF81000ADF81C00A9
:1051500000275FF0010801E018F10108BDF81C000C
:10516000414689B2884263D3022005900020ADF801
:105170001000039604A8029005A80190002000905A
:105180004346DBB2BDF82020290089B22000FFF79A
:105190007CFBBDF81090484680B20028DCD001208E
:1051A000059000208DF8120003960DF11200029078
:1051B00005A801900020009000234A4692B22900E1
:1051C00089B22000FFF761FB9DF812A05FF0010B90
:1051D0005046594680B289B28842BDD3042005901A
:1051E00000200690039606A8029005A801900020D2
:1051F00000905B46DBB24A4692B2290089B2200099
:10520000FFF743FB069800F0FF00FF2809DB0220B0
:105210000590FF20ADF81000BDF8100017FA80F7D8
:1052200003E0069800F0FF00C7191BF1010BCFE760
:10523000380009B0BDE8F08F2DE9F84F86B00400C2
:105240000D0016001A005FF0000940F202270497D3
:105250000020E16B07FB06F3C854DFF8B084CDF8FB
:105260000C80E06B07FB06F10844029004A8019053
:1052700001200090002392B2290089B22000FFF79C
:1052800004FB01285ADBE06B07FB06F1405C0028B9
:1052900054D0E06B07FB06F1405CADF814005FF002
:1052A00000095FF0010A16E0226C0BFB06F31A44BA
:1052B0000B009BB202EB830353F8022C02F0FF02B7
:1052C00012EB0909491C02000B0092B29BB29A42F0
:1052D000EAD21AF1010ABDF81400514689B2884297
:1052E0002CD3E06B07FB06F10844514689B230F835
:1052F0001120100080B20028EBD040F2024BCDF814
:1053000010B00020216C0BFB06F3C854CDF80C80C4
:10531000206C0BFB06F10844029004A801900120C8
:105320000090002392B2290089B22000FFF7ADFA65
:10533000206C0BFB06F1405C0121C4E7484607B036
:10534000BDE8F08F2DE9F84F86B004000D0016007F
:105350001F005FF0000800203860002030605FF020
:1053600000090120059000208DF81100DFF89C0352
:1053700003900DF11100029005A80190002000900B
:1053800000234FF4E052290089B22000FFF77DFA94
:105390000128C0F2BB809DF811000328C0F2B6803E
:1053A0009DF81100092802DB08208DF811005FF03C
:1053B000020AA4E03968401838609EE00120059098
:1053C00000208DF81000DFF84403039004A8029039
:1053D00005A80190002000901AF10103DBB24FF400
:1053E000E052290089B22000FFF74FFA0128C0F2ED
:1053F00084805046C0B2022805D19DF810000228D2
:1054000001D15FF001099DF81000002805D09DF83A
:10541000100019EB00008DF810005046C0B20228B1
:1054200006D19DF81000002802D103208DF810004D
:105430005046C0B2032806D19DF81000002802D1C2
:1054400004208DF810004FF49C7B6068290089B21D
:105450000BFB01F108445146C9B208449DF81010F5
:1054600080F871109DF81000002819D1606829009B
:1054700089B20BFB01F108445146C9B200EBC101EE
:10548000D1F8350061682A0092B20BFB02F2114498
:105490005246D2B201EBC20130F48030C1F835007F
:1054A0009DF81000032803D09DF81000042824D193
:1054B0005246D2B202F5E052103292B2290089B2BD
:1054C0002000FFF71FFE002817D061682A0092B263
:1054D0000BFB02FB59445246D2B201EBC201C21D82
:1054E000082392FBF3F2A1F833209DF81010032952
:1054F0007FF460AF3168401830601AF1010A5046FD
:105500009DF81110C0B28842FFF458AF38680128E6
:1055100002DA3068012801DB5FF00108404607B07D
:10552000BDE8F08F2DE9FC4F85B004000D00109E02
:105530000027002030600020069908605FF0000816
:105540000A2004900021A26B059B0A204343D154FA
:10555000DFF8B8010390A16B059A0A20424301EBE2
:105560000200029004A801900120009000234FF453
:10557000E052290089B22000FFF787F90128C0F224
:10558000A580A16B059A0A204243885C0328C0F2DB
:105590009D80A16B059A0A204243885C8DF8040027
:1055A0009DF8040009280BDB08208DF804000A2070
:1055B000009000230022290089B22000FDF747F95E
:1055C0005FF002097BE031684018306075E0A16B44
:1055D000059A0A20424301EB02004946C9B2084439
:1055E00090F802A04846C0B2022805D15046C0B289
:1055F000022801D15FF001085046C0B2002801D056
:1056000018EB0A0A4FF49C7B6068290089B20BFBF7
:1056100001F108444946C9B2084480F871A05046D7
:10562000C0B2002819D16068290089B20BFB01F1D2
:1056300008444946C9B200EBC101D1F835006168A0
:105640002A0092B20BFB02F211444A46D2B201EB9D
:10565000C20130F48030C1F835005046C0B2032892
:1056600003D05046C0B2042827D14B46DBB203F525
:10567000E05310339BB2059A290089B22000FFF74E
:10568000DBFD002819D061682A0092B20BFB02FBF7
:1056900059444A46D2B201EBC201C21D082392FB13
:1056A000F3F2A1F833205FFA8AFABAF1030F8AD134
:1056B0000699096840180699086019F101094846D9
:1056C0009DF80410C0B28842FFF481AF3068012811
:1056D00003DA06980068012800DB0127380007B0CC
:1056E000BDE8F08F7FB5089C099D0A9E0396029540
:1056F0000194DBB200931300DBB20A0092B2010006
:1057000089B20348FFF7A8FA04B070BD60AE0A0082
:10571000000000242DE9F04188B004000F001600BD
:105720001D0018210022E8464046FCF7E3FF06A8CA
:1057300000F00EFADDE90601CDE90001ADF80A70CE
:10574000ADF80C6000208DF80E000120E16A0870B1
:1057500008208DF80F00ADF8105069462000FDF7C5
:1057600039F808B0BDE8F0812DE9FD4FADF5306D99
:10577000AAB00C00DDF8E08B0DF5BB60FDF7E8FD8D
:1057800000230DF5BB62210089B2DDF8A80BFDF7FF
:1057900067FE02A8FDF7DCFD0DF5BB6502AE042037
:1057A000308000207080002030714FF49C77DDF84D
:1057B000A80B4068210089B27943084490F8C800DA
:1057C000FDF7BEFDDDF8A81B4968220092B207FB79
:1057D00002F7394481F8C800C0B20001401D707161
:1057E000B07910F0F80050F00100B071B07910F00D
:1057F000F700B071B07910F0EF00B071B07910F02F
:105800001F009DF8AC1B50EA4110B0719DF8B00B21
:10581000F071BDF8D80B30810026FFA8FF30E730CB
:1058200001905FF0010944F6206302AA210089B2C9
:10583000DDF8A80BFDF7D6FD0700012F12DA3800BE
:105840000DF5306D2DB0BDE8F08F5FF0000904203C
:1058500000900023BDF8D82B210089B2DDF8A80BF9
:10586000FCF7F5FF4846C0B20028E8D00DF5BB6054
:10587000FDF76EFDDDF8E43B0DF5BB62210089B25A
:10588000DDF8A80BFDF7ECFD0700012FDDDB6879E3
:1058900010F00F00052849D1A87910F01700022850
:1058A00044D1A879C0B240099DF8AC1B88423DD1D3
:1058B000E8799DF8B01B884238D12888B0F1040AF5
:1058C0001AEB0606DDF8DC0B0068310089B288426D
:1058D0000ADB524692B20199C3465846FEF732FFA0
:1058E0001FFA8AFAD04413E0BAEB0606DDF8DC0BA7
:1058F000006886193200DDF8DC0B0668100080B203
:10590000002805D092B20199C2465046FEF71AFF10
:10591000A879C0F3C000C0B20028A3D15FF000098D
:10592000300080B2DDF8DC1B08609BE75FF0000907
:10593000687910F00F00052815D1A87910F017002C
:10594000122810D10DF5BB6029880844001D019074
:1059500001980388BDF8D82B210089B2DDF8A80B87
:10596000FFF7D8FE0AE0012000900023BDF8D82BF5
:10597000210089B2DDF8A80BFCF769FF002771E769
:105980002DE9F84FA8B004000D0016001F000020FC
:10599000069000203860002030605FF0000831E0A1
:1059A00004200490CDF80C9005A8029004A8019062
:1059B00007A8594689B200EB410080880090042373
:1059C00040460200D2B2290089B22000FFF7CCFE87
:1059D00001280DDB0598C0F38040002808D1386805
:1059E0000821059A120C12F0030291400818386041
:1059F0001BF1010B5846514680B289B28842CFD381
:105A000018F10108B8F1080F80F288808420049012
:105A1000DFF82091CDF80C9007A8029004A801901F
:105A200018200090402340460200D2B2290089B2DB
:105A30002000FFF799FE012844DB0498042841DB8D
:105A4000BDF81C00022190FBF1FA504680B20028FC
:105A500038D0504680B2412834DA102030605FF0F0
:105A6000000B29E004200490CDF80C9005A80290CA
:105A700004A8019007A8594689B200EB410080882C
:105A80000090042340460200D2B2290089B22000CF
:105A9000FFF76AFE01280DDB0598C0F3804000285F
:105AA00008D130680821059A120C12F003029140C7
:105AB000081830601BF1010B5846514680B289B27C
:105AC0008842CFD384200490CDF80C9007A8029090
:105AD00004A8019010200090402340460200D2B25A
