:020000040800F2
:10000000302C0124AD02000861430008E9380008E3
:100010009D3F0008F30A00088D570008000000000B
:10002000000000000000000000000000C9470008B8
:10003000010D00080000000041440008A94B000821
:10004000C7020008C7020008C7020008C70200086C
:10005000C7020008C7020008C7020008C70200085C
:10006000C7020008C7020008C7020008C70200084C
:10007000C7020008C7020008C7020008C70200083C
:10008000C7020008C7020008C7020008C70200082C
:10009000C7020008C7020008C7020008C70200081C
:1000A000C7020008C7020008C7020008C70200080C
:1000B000C7020008C7020008054D0008C702000873
:1000C000C7020008C7020008C7020008C7020008EC
:1000D000C7020008C7020008C7020008015700084D
:1000E000C7020008C702000800000000C70200089D
:1000F000C7020008C7020008C7020008C7020008BC
:10010000C7020008C7020008C7020008C7020008AB
:10011000C7020008C7020008C7020008C70200089B
:10012000C7020008C7020008C7020008C70200088B
:10013000C7020008C7020008C7020008C70200087B
:1001400000000000000000000000000000000000AF
:10015000C7020008C7020008C7020008C70200085B
:10016000C7020008C7020008C7020008C70200084B
:10017000C7020008C7020008C7020008000000000C
:10018000C7020008C7020008C7020008C70200082B
:10019000C7020008C7020008C7020008C70200081B
:1001A000C7020008C7020008C7020008C70200080B
:1001B000C7020008C7020008C7020008C7020008FB
:1001C000C7020008C7020008C7020008C7020008EB
:1001D000C7020008C7020008C7020008C7020008DB
:1001E000C7020008C7020008C7020008C7020008CB
:1001F000C7020008C7020008C7020008C7020008BB
:10020000C7020008C7020008C7020008C7020008AA
:10021000C7020008C7020008C7020008C70200089A
:10022000C7020008C7020008C7020008000000005B
:10023000C7020008C702000800000000C70200084B
:10024000C7020008C7020008C7020008C70200086A
:10025000C7020008C7020008C7020008C70200085A
:10026000C7020008C7020008C7020008C70200084A
:10027000C7020008C7020008C7020008000000000B
:10028000C702000800000000C702000800000000CC
:1002900000000000C7020008DFF80CD000F01CFBD3
:1002A0000048004761BD0008302C01240648804703
:1002B00006480047FEE7FEE7FEE7FEE7FEE7FEE74B
:1002C000FEE7FEE7FEE7FEE77D4C00089902000826
:1002D0002DE9F05F0546002092469B46884606467B
:1002E000814640241BE0284641464746224600F00E
:1002F000F3F853465A46C01A914110D31146184696
:10030000224600F0DAF82D1A67EB01084F46224624
:100310000120002100F0D1F817EB00094E41201E0A
:10032000A4F10104DFDC484631462A464346BDE8D5
:10033000F09F2DE9F0410024061B254671F10006CF
:1003400005DA01240027D0EB070067EB0101161E38
:1003500073F1000605DA0027D2EB0702012567EBEF
:100360000303FFF7B5FF86460E4617469C46AC4290
:1003700004D00025D0EB050E65EB010624B100206A
:10038000D2EB000760EB030C704631463A466346F9
:10039000BDE8F081A0F16101192900D8203870472B
:1003A00040EA01039B0703D009E008C9121F08C0F7
:1003B000042AFAD203E011F8013B00F8013B521E77
:1003C000F9D27047D2B201E000F8012B491EFBD2EE
:1003D00070470022F6E710B513460A460446194650
:1003E000FFF7F0FF204610BD10B5044604E00B787F
:1003F00000F8013B03B1491C521EF8D2204610BD43
:1004000010B5002200E0521C835C8C5CA34201D139
:10041000002BF8D1D8B2E1B2401A10BD034611F852
:10042000012B00F8012B002AF9D118467047000073
:1004300070B50F4D00B92868002412E00A4602E0AA
:100440009E4203D0521C1378002BF9D1DAB222431A
:1004500005D02BB124B1002100F8011B04E00446B3
:10046000401C0678002EE9D12860204670BD0000AF
:100470009800002470B5064605F08AFB046805461E
:100480000A220021304600F037F82C6070BD30B5EC
:100490000B46014600202022012409E021FA02F542
:1004A0009D4205D303FA02F5491B04FA02F52844DC
:1004B000151EA2F10102F1DC30BD202A04DB203A36
:1004C00000FA02F1002070479140C2F1200320FAA7
:1004D00003F3194390407047202A04DB203A21FAA5
:1004E00002F00021704721FA02F3D040C2F120024D
:1004F00091400843194670472DE9F04791460F4651
:1005000080460446002614F8015B2DB100F008FA7D
:100510000068405DC007F6D12B2D02D02D2D18D0DC
:10052000641E4A463946204600F0FEF927B1396874
:10053000A14201D1C7F8008071054FF002040BD52C
:100540004042002803DD05F023FB0460A007BDE85E
:10055000F08746F48066E4E70028F8DA05F018FB37
:1005600004606FF00040F2E72DE9FE4F804681EA1B
:100570000300C00F0C46009021F0004123F000451D
:10058000B8EB0200A94105D24046214690461C46E0
:100590000B46024623F00040104347D0270DC7F317
:1005A0000A00C3F30A510290401A019040286BDA06
:1005B000C3F3130040F4801B0098924620B100233F
:1005C000D2EB030A63EB0B0B01985946C0F14002D2
:1005D0005046FFF772FF06460D4650465946019AAF
:1005E00000F08CF910EB08006141002487EA1152F9
:1005F00084EAE7731A4340D0009A62B3019A012A51
:100600004FEA075215DC001B61EB02014FF000427C
:1006100002EA0752CDE90042001C41F58011324642
:100620002B4600F0DFF903B0BDE8F08F40462146CD
:10063000F9E7001B61EB0201001C41F58013001873
:100640005B412018A2F5001747EB030140EAD57083
:10065000B6196D4111E06D084FEA360645EAC075DE
:100660004FEA0752001B61EB0201001C41F58011AB
:1006700049084FEA30000019514132462B4603B079
:10068000BDE8F04F00F09FB9009801224000002320
:10069000D0EB020263EBE073009821464FEAE0746E
:1006A000B8EB000061EB0401E9E783F000435BE78E
:1006B00081F0004158E72DE9FE4F81EA030404F080
:1006C000004421F0004100944FF0000B23F0004360
:1006D00050EA01045ED052EA03045BD0C3F30A542B
:1006E000C1F30A552C44A4F2F3340194A0FB025444
:1006F000C1F3130141F48011C3F3130343F48013D6
:1007000001FB024400FB034E840A970A44EA815429
:1007100047EA8357A4FB076802958D0A05FB078506
:100720004FEA932C04FB0C542705029D4FEA065810
:1007300047EA1637B5EB08056EEB070C870E920EED
:1007400047EA811742EA8312A7FB0201B6EB0B01CD
:1007500064EB00042B0D43EA0C335E1844EB1C5091
:10076000DA465146E7FB0201C5F313044FEA0B33A7
:1007700043EA14534FEA0432019C43EA0603A4F10E
:100780000C040294009CCDE900B400F02BF903B0F6
:10079000BDE8F08F00200146F9E72DE9F04D81EA30
:1007A000030404F0004B21F0004514464FF0000A0A
:1007B00023F0004150EA050220D054EA01021DD086
:1007C000C5F30A570246C5F31303C1F31300C1F37F
:1007D0000A5640F4801543F48013A7EB0608101B5B
:1007E000D64608F2FD3873EB050002D308F1010884
:1007F00001E092185B41B8F1000F03DA00200146D6
:10080000BDE8F08D00204FF48011064684460EE0CE
:10081000171B73EB050705D3121B63EB0503064398
:100820004CEA010C49084FEA300092185B4150EA4B
:100830000107EDD152EA030012D082EA040083EAF4
:100840000501084305D0101BAB4106D2012200234D
:1008500006E000224FF0004302E06FF00102531067
:100860001AEB06004CEB085110EB0A0041EB0B01B0
:10087000BDE8F04D00F0A7B8C1F30A52C1F313016F
:1008800040F2FF3341F480119A4202DA002001461F
:10089000704740F233439A42A2F2334202DC5242A2
:1008A000FFF71ABEFFF709BE30B5041E71F1000450
:1008B00004DB4FF00044404264EB0101141E73F16D
:1008C000000405DB1C464FF00043524263EB040377
:1008D000994208BF904230BD064C074D06E0E068E3
:1008E00040F0010394E8070098471034AC42F6D377
:1008F000FFF7D6FC64C8000884C80008202A06DB7D
:10090000CB17203A41FA02F043EAE07306E041FADD
:1009100002F3D040C2F120029140084319467047CB
:1009200000487047D8C700082DE9F05F824600787C
:10093000002715468B460AF10104B946302801D03C
:100940009DB113E014F8010B0127782803D0582833
:1009500001D045B10AE00DB1102D07D100271025B7
:1009600014F8010B02E0082500E00A250026B04635
:100970000EE005FB080005FB06F1012701EB104620
:100980001FFA80F8B6F5803F00D3B94614F8010B82
:10099000294600F075F80028EBDABBF1000F05D00E
:1009A0000FB1641E00E05446CBF80040B9F1000FCF
:1009B00006D005F0EDF802210160C81EBDE8F09FE9
:1009C00048EA0640FAE710B5141E73F1000408DA8D
:1009D000401C41F1000192185B411A4301D120F003
:1009E000010010BD2DE9F04D92469B4611B1B1FAC0
:1009F00081F202E0B0FA80F220329046FFF75DFD0E
:100A000004460F4640EA0A0041EA0B0153465A46A3
:100A1000084313D0114653EA010019D0C8F140022F
:100A20005046FFF759FD05460E4650465946424688
:100A3000FFF743FD084305D0012004E02046394676
:100A4000BDE8F08D0020054346EAE0762C433743AD
:100A50000A986305E40AA0EB08000022FD0A44EAB4
:100A600047540A3002D500200146E9E70105101974
:100A70006941DDE9084500196941BDE8F04DA2E78B
:100A80003A2800D2303820F02002412A01D3A2F1C6
:100A90003700884201D34FF0FF30704770B58C1893
:100AA00010F8015B15F0070301D110F8013B2A1182
:100AB00006D110F8012B03E010F8016B01F8016B6F
:100AC0005B1EF9D12B0705D40023521E0DD401F86B
:100AD000013BFAE710F8013BCB1A921C03E013F834
:100AE000015B01F8015B521EF9D5A142D8D3002069
:100AF00070BDFEE7F0B5BFF34F8FBFF36F8F1A499C
:100B000000200860BFF34F8FBFF36F8F174A116843
:100B100041F400311160BFF34F8FBFF36F8F134962
:100B200070310860BFF34F8F081F43F6FF740068F1
:100B30000D4D1035C0F34E31C0F3C90304EA411620
:100B4000184600BF46EA80772F60401EFAD2491E41
:100B5000F4D2BFF34F8F106840F480301060BFF3C1
:100B60004F8FBFF36F8FF0BD50EF00E014ED00E04A
:100B700001681823CAB2103AB2FBF3F2054B6FF3C7
:100B80000901032A9B5CC36500D9091D81650846DC
:100B90007047000064C0000830B5124901230268A4
:100BA00054188C2CD1B209D814220F4C0839B1FB3F
:100BB000F2F10D4A803204EB81040DE018240B4D54
:100BC0001039B1FBF4F12A44A82A00D80831084AA8
:100BD00002EB8104064A803204668B40C0E9192387
:100BE00030BD0000F8ABFDA700580258F0FBFDBF78
:100BF0000008024010B5017903684A1E072A11D87F
:100C0000094C23448C2B03D8084B084C443302E096
:100C1000074B074C443304EB8101C0E91B1301214E
:100C20009140416710BD0000F8ABFDA7FC58025889
:100C3000FC08024010B583694FF0C074826A014617
:100C4000002053B1B3F5005F15D072B1012A0CD06A
:100C5000022A0AD0032A09D104E01AB1012A06D0D7
:100C6000022A03D1C96AC90100D5012010BDC96A91
:100C7000A142FAD010BD002AF7D0012AF2D0022AF0
:100C8000F3D0032AF3D010BDF0B5D0E91964856D17
:100C90007460C46E14B1D0E91C466660154E0468D9
:100CA0002644B6F5956F12D890F85C603F24B440A6
:100CB000AC600468256825F48025256013E09A60FF
:100CC0000068C160F0BD99600068C260F0BD0A4D67
:100CD0002C448C2CFAD8094C012590F85C702668BD
:100CE000BD402E432660046863608368402B036820
:100CF000E9D1E4E7F0FFFDBFF8ABFDA704540258CB
:100D0000704770B5A2B0064600244FF4C3600125B9
:100D10008DF80F5002238DF81D4069038DF80E5099
:100D200009948DF81F400D9020208DF804508DF807
:100D3000325042028DF8605006914FF040518DF8CC
:100D4000384002948DF861408DF81C408DF82840A1
:100D50008DF862408DF80C400B948DF81E500F9466
:100D60008DF8115012948DF840408DF831408DF877
:100D7000124014948DF856401790304616938DF813
:100D8000205005928DF854408DF830408DF8105069
:100D9000009169468DF80D408DF8554011948DF8FD
:100DA0004C5000F0F1F91B9568058DF871404FF437
:100DB00006718DF8685019948DF880408DF8704058
:100DC0001F908DF878401D9030468DF8814021911C
:100DD00019A900F07FF922B070BD00000B46024651
:100DE0000448002110B501F08DF8002801D04FF023
:100DF000FF3010BDDC0500240B46024604480021EC
:100E000010B501F0A9F9002801D04FF0FF3010BD56
:100E1000DC0500242DE9F04F836A00F118059346A4
:100E20008C6800271E4655F82320D2F80CC0BCF170
:100E3000000F63DB91F800805FEA487837D5D1F87E
:100E400024806FF30F0C4CEA080C4CF4803CC2F881
:100E50000CC0D0F800C0DCF8608048F48018CCF8F2
:100E6000608091F800C05FEA0C7C20D5B1F82CC0FE
:100E7000A2F80AC0D2F80CC04CF4003CC2F80CC076
:100E8000D1F830802CF4402C4CEA080CC2F80CC08D
:100E9000D0F800C0DCF8648048F48018CCF8648096
:100EA0000068D0F850C04CF0806CC0F850C0087892
:100EB000C0060BD59068D1F818C06FF30D0040EA5A
:100EC0000C009060D06840F08060D060087810F02E
:100ED000140F14D0D0685B1C042B40F04040D0604D
:100EE00000D31B1F012755F82320D068002806DAFD
:100EF00055F82600C16821F00041C1608DE02068EE
:100F00007F1C10604FF000099068D4F80480DFF86F
:100F1000C0C16FF30D0040EA08009060D4F808806B
:100F2000B8F1000F0BD04446D8F80080C2F8048016
:100F300000EA0C00B4F8048040EA084003E000EA4C
:100F40000C00C2F8049090600878C006D0680FD5F5
:100F5000B1F8208020F4F00040EAC840D060D1F819
:100F60001C806FF3110040EA080040F480201CE070
:100F7000D1F804806FF30E0040EA0800D06091F8C9
:100F800000805FEAC87806D0D1F8148020F44030A1
:100F900040EA0800D0600878800607D5D068D1F80C
:100FA000108020F0406040EA0800D06008784007D8
:100FB00007D59068D1F8288020F4404040EA080026
:100FC0009060D06820F0804040F02040D06091F8E0
:100FD00000805FEA887864D5D1F80C8020F06070DA
:100FE00040EA08005CE05B1C042B00D31B1F55F893
:100FF0002320D068002813DA55F8261000200AE0D4
:10100000CA68761C042E22F00042CA6000D3361F44
:10101000401C55F82610B842F2D30220BDE8F08FEC
:1010200020687F1C10609068D4F804806FF30D0076
:1010300040EA080AC2F808A0A06840B10446006867
:1010400050600AEA0C08A08848EA004003E00AEA77
:101050000C00C2F8049090600878C006D06808D5EB
:10106000D1F81C806FF3110040EA080040F48020A2
:1010700010E0D1F804806FF30E0040EA080AC2F8CD
:101080000CA00878C00716D0D1F814802AF440309C
:1010900040EA0800C2F80C0020F0804040F0004018
:1010A000D060A468002C9ED19068BBF1000F04D0E2
:1010B00040F0004003E0D068EEE720F00040906090
:1010C000D06840F08050D06000202B61A6E700007F
:1010D000FFFF00C0F0B5026847F6020E274E4DF242
:1010E000010702F58052264DD1F800C01368254C47
:1010F00023EA0E0343EA0C0313600B79026891F8AC
:101100000CE002F58052D1F808C01B0343EACE334D
:1011100043EA0C03D2F804C02CEA070C4CEA030C97
:10112000C2F804C002684F7B02F580520B6A43EAA2
:101130000747D2F8003133403B43C2F80031026820
:101140000B7D02F5805291F81DC00F69D2F8046141
:101150001B0143EA0C332E403B431E43C2F804619B
:1011600000680B7F00F580508A69D0F8081142EAC8
:10117000C37221401143C0F80811F0BD00C0FEFF4A
:10118000EFEFC0FFFFFFC07FF0B50B790C7B0F685E
:101190008A68DB064D7B43EAC4533A438E7B1A438D
:1011A000CF7B91F810C042EA855242EA4652BCF128
:1011B000000F42EA07537CD000224C7C002C43EA0B
:1011C000C24278D000238E7C0D7F42EA43428F7F5B
:1011D000D1E9053442EA06424E7F1A43224342EAED
:1011E0000532002F42EAC62466D00022CD7F91F856
:1011F000203044EA8222002B42EA45227ED000259C
:1012000004684B6A42EA052291F82870464D1A4359
:10121000CE6A236842EA071232432B40134323600D
:1012200091F83C2091F8383091F8305091F83140E5
:10123000520642EA036291F8326042EA854242EA8B
:101240004444BEB300220368384E4F6B44EA024266
:101250005C683A4340F20F15344014435C60036805
:1012600091F840604C6CDA6844EA0624AA432243B1
:10127000DA6091F854300A6D91F84C4042EA43022A
:10128000ECB300240368B1F848504FF60D76E7013F
:101290001C6F47EA05452A43344014431C67026823
:1012A00091F8563091F8555052F8904F43EA450363
:1012B00003E02BE032E02BE02CE024F003041C439D
:1012C000146002688C6DD2F8003D23F07203234352
:1012D000C2F8003D91F86020CC6D1AB35FF00003B6
:1012E000026891F8615091F8621044EA8310D2F8D4
:1012F000303D2C0144EAC101084301E00CE00FE05D
:1013000023F07B010143C2F8301DF0BD012254E7F8
:10131000012358E7012269E7012571E7012292E7DD
:101320000124AFE70123DBE7838004000080F8C0DD
:101330000148006870470000240400404FF08040DE
:10134000406A70472DE9F0470026044601F03EF858
:101350008046D4B394F835000027022804D08020BA
:10136000606584F8347030E020684FF495622C4951
:1013700043189342036809D823F01E0303602068D2
:10138000436923F080034361A66D02E023F00E035E
:101390000360206E924625688946026822F48072B6
:1013A00002602068016821F00101016010E000BFC7
:1013B00001F00CF8A0EB0800052809D9202161658F
:1013C000032084F8347084F835000120BDE8F087EC
:1013D0002868C007ECD12268012002EB09015145C1
:1013E00005D894F85C203F219140B16005E094F865
:1013F0005C100C4A00FA01F11160D4E919124A603C
:10140000E16E31B10A6822F480720A60D4E91C12DC
:101410004A6084F8347084F835000020D6E7000074
:10142000F0FFFDBF0454025810B528B190F83510F4
:10143000022903D080214165012010BD1D4A4FF4CF
:10144000956301688C189C4207D8042280F83520E7
:10145000086820F00100086029E00C6824F00E0400
:101460000C6001680A440A6822F001020A60016EF9
:101470000122114B0C6824F480740C6090F85C100D
:1014800002FA01F11960D0E919134B60C16E31B154
:101490000B6823F480730B60D0E91C134B600023AE
:1014A000016D80F8343080F8352001B18847002084
:1014B00010BD0000F0FFFDBF04540258406D70479E
:1014C0002DE9F05F044600F081FF002C064656D05F
:1014D000614A022120684FF0010B4FF0200A4FF0C3
:1014E000030702444FF04009B2F5956F4FF0000535
:1014F00051D884F8345084F83510016821F0010186
:10150000016006E000F062FF801B052801D950460B
:1015100080E020680068C007F4D104F10800226868
:10152000D4E9051C89C81843D4E907380F4311686A
:1015300038434A4F40EA0C00666A1843394040EA93
:101540000800042E40EA010003D1D4E90B1319432B
:10155000084310602068666A4069042E20F0070086
:1015600046EA00060CD1D4E90A01064341B12046FF
:10157000FFF760FB20B1C4F8549084F835B04CE01C
:10158000206846612046FFF7F3FA94F85C203F217B
:101590009140816031E0324A83188C2B39D884F82D
:1015A000345047F6F07684F835100168A36821EAD4
:1015B0000609402B28D0802B28D00021D4E903C372
:1015C00004F1140641EADC0896E8C01048EAD303A7
:1015D000D4F8208043EAD60343EAD70114230AEA69
:1015E000DC06314341EA181141EA09010160206833
:1015F0001044B0FBF3F08000E0652046FFF7CCFA22
:10160000A06880280CD00CE01021D7E74FF480416F
:10161000D4E74846606584F835700120BDE8F09F46
:101620006560216E20790860D4E919014160606825
:10163000401E072808D82046FFF7DCFAE06E056058
:10164000D4E91C01416002E0E566256765676565D0
:1016500084F835B00020E1E7F0FFFDBF3F8010FEC9
:10166000F8ABFDA72DE9F047040089464FF00006CE
:1016700013D094F83400012811D094F8355001208B
:10168000002184F83400012D0BD0C00284F83410FE
:10169000012660653046BDE8F0870120FBE70220A7
:1016A000F9E7234D4FF0020C20684FF4956784F85A
:1016B00035C06165016821F001010160494620469D
:1016C000FFF7E2FA20684119B942016810D821F009
:1016D0001E0141F0160101602068416941F080015E
:1016E0004161206C80B12068016841F008010AE086
:1016F00021F00E0141F00A010160206C20B1206848
:10170000016841F004010160206E0168C90303D53E
:10171000016841F480710160E06E18B1016841F424
:10172000807101602068016841F001010160B1E74A
:10173000F0FFFDBF70B5044600F048FE0546601C92
:1017400002D004480078044400F040FE401BA04250
:10175000FAD370BD0400002400F12C02F0B5D2E9E8
:10176000053452F8231024B1D56905B1641C002555
:1017700023E00120F0BD0F694FF080760F60CE604E
:101780004E692EB14E698E60CE6846F00076CE600E
:10179000CE6846F00046CE60166A1EB1CE6846F0AE
:1017A0008046CE609669761EAE4205D95B1C042B3E
:1017B00000D31B1F52F823106D1CA542DBD3006819
:1017C000002300F58050C0F8281118469361F0BD41
:1017D00010B500EB8104E46A0AB1042903D30121A6
:1017E0004165084610BD22602261E06840F08070CB
:1017F000E06023B1A36040F000706361E06040F0FE
:101800000040E060002010BD00297DD00268126811
:1018100002F00C02CA6202681268C2F3001281F878
:1018200028200268126802F060024A6202681268A8
:1018300042F30022521C81F8202002681268C2F391
:101840004022CA770268126842F38022521C8A77CB
:1018500002681268C2F3C0224A7702681268C2F3B3
:1018600000320A770268126802F400528A61026844
:10187000126802F480424A6102681268C2F30042B0
:101880008A740268126842F34042521C4A74026829
:10189000126842F3C042521C0A7402681268C2F312
:1018A0000052CA7302681268C2F340528A73026817
:1018B0001268C2F380524A7302681268C2F3C052BF
:1018C0000A730268126802F0E0628A6002681268B5
:1018D000C2F3C0620A710268126802F0E0420A6054
:1018E00002685268C2F30D024A630268526842F30A
:1018F0000042521C81F8322002685268C2F3404212
:1019000081F83120026800E062E05268C2F3804250
:1019100081F8302002685268C2F3006281F83820F2
:1019200002685268C2F34462CA630268D268C2F3B2
:10193000002281F840200268D26802F00F024A6457
:101940000268126FC2F3400281F854200268126FDD
:1019500042F3C012521C81F84C200268126F02F050
:1019600070020A650268126F120C8A640268D2F86B
:10197000902002F0010281F856200268D2F89020EF
:10198000C2F3400281F855200268D2F8002D02F01F
:1019900072028A650268D2F8302D02F02302CA650D
:1019A0000268D2F8302DC2F3C00281F862200268CA
:1019B000D2F8302DC2F3001281F861200068D0F80F
:1019C000300D40F38010401C81F86000002070470B
:1019D00001207047C1B30268926802F001020A70E8
:1019E00002689268C2F34002CA7002689268C2F349
:1019F00080020A7102689268C2F3C0020A72026829
:101A00009268C2F300124A710268926842F340126F
:101A1000521C4A720268926802F0C002CA600268F0
:101A20009268C2F30022CA7102689268C2F340222F
:101A30008A7102689268C2F380228A7000688068A6
:101A4000C00F487000207047FFE70120FBE72DE939
:101A5000F04300F12C0680460C464FF00009D6E911
:101A6000057056F8275018B9404600F067F978B36A
:101A7000002019E0696949B354B329692160D8F895
:101A800014106160A4681CB369692160D8F814104F
:101A90006160E9687F1C042FC1F30E0900D33F1F6A
:101AA000A468401C56F82750B169491E8142E1D80C
:101AB00074B1EA68D8F81410C2F30E02A2EB090060
:101AC000814206D32969C4E9001011E02969DCE7E5
:101AD00011E0696979B129692160D8F81410616051
:101AE000A16841B16A690A60D8F81420801A486078
:101AF0000020BDE8F0830120FBE770B500F12C0465
:101B00000D46D4E9056111B900F018F968B1A06972
:101B1000761E3044042800D3001F54F82000C0680B
:101B2000C0F30E002860002070BD012070BD0000D1
:101B3000F8B5040003D094F8510010B104E001207E
:101B4000F8BD204600F060F9232084F85100714868
:101B5000016841F002010160006800F0020000909D
:101B6000207A08B14FF4000001F0BCFA206800F5BB
:101B70008050016841F00101016000F027FCE0267F
:101B800005464FF4FA7706E000F020FC401BB8420F
:101B900001D9042049E0206800F580500068C007A2
:101BA000F2D12068D0F8000220F4706500F058FFF0
:101BB000594A5A4902448A4202D245F4007516E055
:101BC000574A584902448A4202D245F440750EE011
:101BD0005549564A0144914209D35549554A08444A
:101BE000904202D245F4807501E045F4806520689A
:101BF000C0F8005200F034FF4F4A2168B0FBF2F009
:101C0000401EC1F8DC002046FFF77BF8206800F595
:101C10008050D0F8001121F4E01141F40021C0F807
:101C200000116169880704D00120606584F8516063
:101C300085E7206847F6FE7300F58050D0F808214C
:101C40009A4342EA4101C0F8081100214FEA01001D
:101C5000E26800EB400504EB800302EBC502401C88
:101C60000428116051609160D1609A61F0D3A16243
:101C70000323206800F58050C0F82C312068E2680A
:101C800000F58050C0F814212068E26800F580500B
:101C9000C0F820215FF00002206902EB420604EB4D
:101CA000820500EBC600521C042A0160416081607D
:101CB000C16001614161E862EED3E1632164616466
:101CC000E164A164206800F58050C0F830312068DC
:101CD000226900F58050C0F81C212268206902F5B5
:101CE00080524830C2F82801D4E900208088C2F828
:101CF000000360682368D0F801500278102042EA9F
:101D00000522C3F80423616584F8510084F8520069
:101D10000020F8BDF444025800D3CEFEC0E1E40038
:101D200040F1E9FD40787D0100796CFC005A6202C7
:101D3000001F0AFA80F0FA0240420F00F0B5C16BB2
:101D40000024466C2C302246234650F821503EB3E6
:101D50000020F0BDEE0004F1010419D5521C012A47
:101D600000D10B46491C042900D3091F50F821401B
:101D7000E468002C07DB640005D50124C461491C1C
:101D8000042900D3091F8261C0E904130120F0BDBA
:101D9000AD0013D50B46491C012211E050F821502B
:101DA000ED68002D01DB042CD4D34AB350F8231086
:101DB00000244FF080764FF040771FE0491C521C02
:101DC0000429EBD3091FE9E70D690D60CE604D6969
:101DD0000DB18D60CF60CD6845F00045CD60D0F885
:101DE00020C0BCF1000F02D045F08045CD605B1CE7
:101DF000042B00D31B1F641C50F823109442E3D320
:101E000000218161A4E7000070B5006886B0374901
:101E1000884268D13648016841F0040101600168D8
:101E200001F004010591016841F0010101600168C0
:101E300001F001010591016841F080010160016834
:101E400001F080010591016841F0400101600068E6
:101E500000F04000059026480838016841F4004130
:101E60000160016801F400410591016841F480318D
:101E70000160016801F480310591016841F400318D
:101E80000160006802240025694600F400300590D6
:101E900032200B268DE831001648CDE9034600F0CC
:101EA0008DF9862069468DE831001348CDE9034657
:101EB00000F084F94FF4605069468DE831000F4816
:101EC000CDE9034600F07AF90D4E01220421304697
:101ED00000F077FA0420039401218DE8230069467D
:101EE000304600F06BF906B070BD00000080024083
:101EF000E044025800080258000002580018025836
:101F0000001C02582DE9F041044600681E46D0F836
:101F10000032DB0719D1D0F8003223F0787343EA9E
:101F2000415121F4F81141EA024141F00D01C0F89C
:101F3000001200F04BFA4FF47A77054608E000BF34
:101F400000F044FA401BB84202D90120BDE8F081FC
:101F50002068D0F80002C007F2D12068D0F804024F
:101F600080B230600020F1E710B519B190F852202E
:101F7000102A01D0012010BDFFF706F9002010BD86
:101F8000F0B539B30B79CC780D7A0A789B004F798C
:101F900042EA44024E7A43EAC5031A4342EA07136F
:101FA000D6B10022CD798C7943EA4213026843EA24
:101FB000052688784D78936846EA4424C96844EA3F
:101FC0008020064E40EAC5700843334003439360C7
:101FD0000020F0BD0120F0BD0122E3E700F8FF7F03
:101FE00030B590F851200021C36A102A01D0012099
:101FF00030BD232480F851400022DC68491C0429AC
:1020000044F08044DC6000D3091F521C00EB8103C4
:10201000042ADB6AF1D30121C16401681023222460
:102020004DF241020D6845F002050D6001680D6832
:1020300045F001050D600168D1F8005D45F001052E
:10204000C1F8005D016801F58051D1F8045145F0F7
:102050000105C1F80451016801F58051D1F808511A
:1020600045F00105C1F80851016801F58051D1F82A
:10207000605145F48175C1F8605180F8513080F8A5
:102080005240006800F58050D0F834111143C0F878
:102090003411002030BD2DE9F0419046044621B1B5
:1020A00094F85100102804D053E0606D40F0010016
:1020B00007E000222046FEF7ADFE20B1606D40F043
:1020C0000200606545E0A06A04EB8001401C042822
:1020D0008D69A06201D3001FA0620146206804EB55
:1020E000810100F580508969C0F8201100F06EF977
:1020F000102706461FE0206800F58050D0F86001E8
:10210000C0040DD5606DE02140F0080060652068D6
:1021100000F58050D0F86001A06584F8511018E0F7
:10212000B8F1FF3F07D000F051F9811B41450AD8B3
:10213000B8F1000F07D0E8680028DCDB84F85170A4
:102140000020BDE8F081606D40F00400606584F817
:1021500051700120F5E7000070B504460068D0F822
:102160000052ED071FD1D0F800029BB2124D20F0B3
:102170007870C5F8043240EA415020F4F81040EA83
:10218000024020F00C00001D40F00100C5F80002E4
:1021900000F01CF94FF47A76054606E000F016F9D7
:1021A000401BB04201D9012070BD2068D0F8000268
:1021B000C007F3D170BD0000008002402DE9F84F48
:1021C0006F4D00224FF001094FF0030E4FF00F0B3F
:1021D0000B6809FA02F803EA0803434574D14C6816
:1021E000022C01D0122C0FD1D4080E69570700EB36
:1021F0008404A246246AFF0E0BFA07FCBE4024EAC0
:102200000C042643CAF820600F79540006680EFAC1
:1022100004FC07F0030726EA0C06A74037430760D3
:102220004E68012E05D0022E03D0112E01D0122EA1
:102230000FD18668CF6826EA0C06A740374387602F
:1022400046680F7926EA0806C7F300179740374318
:102250004760C7688E6827EA0C07A6403E43C66001
:102260004C68E40030D5474C266846F002062660EC
:10227000246822F0030606F1B04604F0020400943C
:102280009407270FD6F80844DFF8FC800BFA07FC08
:10229000404524EA0C0402D14FF0000C41E0DFF885
:1022A000ECC0604502D14FF0010C3AE0DFF8E0C02D
:1022B000604502D14FF0020C33E0DFF8D8C0604532
:1022C00003D14FF0030C2CE053E0DFF8CCC06045A5
:1022D00002D14FF0040C24E0DFF8C0C0604502D109
:1022E0004FF0050C1DE0DFF8B8C0604502D14FF09B
:1022F000060C16E0DFF8ACC0604502D14FF0070CC9
:102300000FE0DFF8A4C0604502D14FF0080C08E0F0
:10231000DFF898C0604502D14FF0090C01E04FF0A2
:102320000A0C0CFA07FC4CEA040CC6F808C42C682A
:102330004E6824EA0304F60300D51C432C606C6845
:102340004E6824EA0304B60300D51C436C604FF0CA
:10235000B0444F682668FF0226EA030600D51E43F4
:1023600026604F686668BF0226EA030600D51E4352
:102370006660521C102AFFF42BAFBDE8F88F0000F6
:1023800080000058F444025800000258000402582B
:1023900000080258000C025800100258001402589D
:1023A00000180258001C025800200258002402584D
:1023B0000069084000D00120704742694A404261EC
:1023C00070470AB1018370474183704701488068B4
:1023D000704700000400002402488168027811441C
:1023E0008160704704000024032010B500F0DEF87F
:1023F000002000F007F808B1012010BD00F070F8CF
:10240000002010BD70B50D4D04464FF47A700C4A93
:1024100029781268B0FBF1F0B2FBF0F000F07EFE1C
:1024200048B9102C07D200222146501E00F09EF819
:1024300000206C6070BD012070BD0000040000240D
:1024400010000024F0B5154C4378211D0A1D2360AF
:102450000378F3B143680B60057BC67A817A437BCE
:102460002D07847B45EA0665C77B90F809C0067A8C
:1024700090F800E045EAC14040EA834040EA444029
:1024800040EA074040EA0C2040EA460040EA0E00DD
:1024900001E0002008601060F0BD000098ED00E051
:1024A000BFF35F8F044800210368034A23F480339D
:1024B000036070321160704724ED00E0074A40F07D
:1024C0000100064970321060086840F480300860EE
:1024D000BFF34F8FBFF36F8F7047000024ED00E014
:1024E0001A4808B5016841F002010160006800F077
:1024F00002000090032000F059F800226FF00B005A
:10250000114600F033F800226FF00A00114600F087
:102510002DF800226FF00900114600F027F8002284
:10252000501F114600F022F80022101F114600F043
:102530001DF80022901E114600F018F80022BDE898
:102540000840501E114600F011B80000F444025833
:10255000002809DB410900F01F028900012001F178
:10256000E0219040C1F80001704700000E4BF0B42C
:102570001B680D46C3F30223C3F10706042E00D9DE
:102580000426191D072901D2002300E0DB1E0124C7
:1025900004FA06F19C40491E2940641E99401440EB
:1025A0002143F0BC03F0E2BA0CED00E0064900F074
:1025B000070210B54FF6FF040868044B204040EABC
:1025C00002201843086010BD0CED00E00000FA0581
:1025D00010B500F08BFA08494FF480730A6893FA3B
:1025E000A3F3064902F47062B3FA83F3DA40044BB2
:1025F0009A5CD040086010BD1844025810000024B6
:1026000084C0000810B500F02BFA074910220968B1
:1026100092FAA2F201F07001B2FA82F2D140034ABA
:10262000515CC84010BD00002044025884C000081E
:10263000424A30B5414D141D13681435DFED400A90
:102640001268291FB7EE001A24682D6813F00303DF
:1026500004F01004C2F30532C5F3CC0515FB04F4F5
:1026600000EE104AB8EE400A05D0364C012B5DD082
:10267000022B5BD159E0314C334B283C2568AD0629
:1026800015D525680C68C5F3C105C4F30804EB40F3
:1026900001EE904AB3FBF2F2F8EE611A40EE201A16
:1026A00000EE102A71EE810AB8EE400A10E00C68C4
:1026B000B3FBF2F2C4F3080401EE904AB8EE612ACB
:1026C00001EE902A00EE202AB8EE610A72EE010AAD
:1026D0000A6820EE200AC2F34622521C00EE902A1D
:1026E000F8EE600A80EE201AFCEEC10AC0ED000A86
:1026F0000A68C2F30642521C00EE902AF8EE600A05
:1027000080EE201AFCEEC10AC0ED010A0968C1F38F
:102710000661491C00EE901AF8EE600A80EE201A5D
:10272000BCEEC10A80ED020A30BD084C0B68B4FB58
:10273000F2F2C3F3080301EE903ABFE728440258CF
:102740000000003900093D000090D00340787D0171
:10275000424A30B5414D141D13681C35DFED400A67
:102760001268291FB7EE001A24682D6813F00303BE
:1027700004F48074C2F30552C5F3CC0515FB04F4D0
:1027800000EE104AB8EE400A05D0364C012B5DD061
:10279000022B5BD159E0314C334B283C2568AD0608
:1027A00015D525680C68C5F3C105C4F30804EB40D2
:1027B00001EE904AB3FBF2F2F8EE611A40EE201AF5
:1027C00000EE102A71EE810AB8EE400A10E00C68A3
:1027D000B3FBF2F2C4F3080401EE904AB8EE612AAA
:1027E00001EE902A00EE202AB8EE610A72EE010A8C
:1027F0000A6820EE200AC2F34622521C00EE902AFC
:10280000F8EE600A80EE201AFCEEC10AC0ED000A64
:102810000A68C2F30642521C00EE902AF8EE600AE3
:1028200080EE201AFCEEC10AC0ED010A0968C1F36E
:102830000661491C00EE901AF8EE600A80EE201A3C
:10284000BCEEC10A80ED020A30BD084C0B68B4FB37
:10285000F2F2C3F3080301EE903ABFE728440258AE
:102860000000003900093D000090D00340787D0150
:10287000704700002DE9F047DFF8C49104460E468A
:10288000D9F8000000F00700B0420CD2D9F80010CF
:1028900021F007013143C9F80010D9F8000000F019
:1028A0000700B04272D12078DFF89881800707D501
:1028B000E268D8F8001021F00F011143C8F80010A9
:1028C0002078C00767D05F49A368D8F8002018397E
:1028D00022F470621A43C8F80020606802281CD0F5
:1028E00003281DD0096801281DD04907002963DA93
:1028F000544D083D296821F0070101432960FFF785
:1029000065FD6168074641F28830022914D0032929
:1029100020D0012982462AD039E009688903E5E7F9
:1029200009688901E2E7C905E0E700BFFFF74EFD4E
:10293000C11B514501D926E082462868C0F3C20078
:102940000228F3D127E000BFFFF740FDC11B51452E
:1029500001D918E082462868C0F3C2000328F3D1E9
:1029600019E000BFFFF732FDC11B51450BD82868A5
:10297000C0F3C2000128F5D10DE000BFFFF726FD2E
:10298000C11B514503D90320BDE8F08714E0286836
:1029900010F0380FF2D1D9F80010484601F00701C5
:1029A000B1420BD9016821F0070131430160006891
:1029B00000F00700B04201D00120E5E72078400791
:1029C00007D52269D8F8001021F070011143C8F82A
:1029D000001021781B48001D090705D562690168B0
:1029E00021F07001114301602178C90605D5A26963
:1029F000016821F4E061114301602078800607D569
:102A00001048E2690830016821F07001114301604B
:102A100000F06CF8D8F800104FF4807292FAA2F22D
:102A200001F47061B2FA82F2D140074A515CC840A9
:102A3000064908600020FFF7E5FC0020A4E700003D
:102A4000002000521844025884C0000810000024DE
:102A50000248016841F400210160704700440258B7
:102A600010B5FFF7B5FD084901230A6893FAA3F3EF
:102A7000064902F00F02B3FA83F3DA40044B9A5C82
:102A8000D040086010BD0000184402581400002413
:102A900084C0000810B5FFF7E3FF0749102209685A
:102AA00092FAA2F201F07001B2FA82F2D140034A26
:102AB000515CC84010BD00001C44025884C000088E
:102AC00010B5FFF7CDFF07494FF48072096892FAFD
:102AD000A2F201F4E061B2FA82F2D140024A515C02
:102AE000C84010BD1C44025884C000084749F0B5D6
:102AF00047480968454B103B11F0380409D00111D3
:102B0000082C04D0434A102C0BD0182C0BD00846AC
:102B1000F0BD19688906FBD51968C1F3C101C84029
:102B2000F0BD1046F0BD394CDFF8E0C01834261D6A
:102B30000CF1240C2768351D2468DFED370AB7EE49
:102B4000001A3668DCF800C017F0030706F001062B
:102B5000C4F30514CCF3CC0C1CFB06F600EE106A93
:102B6000B8EE400A09D0012F01D0022F3BD02868CF
:102B7000B1FBF4F1C0F308003AE01968890615D5F5
:102B80001A682968C2F3C102C1F30801D04001EEFE
:102B9000901AB0FBF4F0F8EE611A40EE201A00EE45
:102BA000100A71EE810AB8EE400A0BE02968B0FB0A
:102BB000F4F0C1F3080101EE901AB8EE612A01EEBB
:102BC000900A1BE020EE200A2868C0F34620401C33
:102BD00000EE900AF8EE600A80EE201ABCEEC10A00
:102BE00010EE100AF0BD2868B2FBF4F1C0F3080043
:102BF00001EE900AB8EE612A01EE901A00EE202A4A
:102C0000B8EE610A72EE010ADCE7000010440258D7
:102C10000090D00340787D0100000039064810B5CF
:102C20000068400506D5FFF723FE03494FF4806096
:102C3000091D086010BD0000644402582DE9F047EA
:102C4000FF4C05460078DFF8F883103CFC4FC007C6
:102C500008F118084CD03868C0F3C20002281AD016
:102C60003868C0F3C200032805D1D8F8000000F08E
:102C7000030002280FD06868B0F5803F12D010B171
:102C8000B0F5A02F18D0206820F480302060206894
:102C900020F4802009E02068800329D56868002896
:102CA00076D025E0206840F480302060686890B1DC
:102CB000FFF78CFB06460AE0206840F48020206085
:102CC000F0E700BFFFF782FB801B64287ED82068F6
:102CD0008003F7D50CE0FFF779FB064605E000BF5F
:102CE000FFF774FB801B6428F0D820688003F7D4BA
:102CF0002878D34E0C3E80075DD538684FF47C3A77
:102D000010F0380F13D03868C0F3C200032803D185
:102D1000D8F8000080070AD0E868C0B3216821F025
:102D2000190101432160FFF751FB814620E0206833
:102D3000400702D5E8680028B2D0E968206820F092
:102D4000190008432060FFF741FB814606E000BF01
:102D5000FFF73CFBA0EB09000228B7D8206840072A
:102D6000F6D508E0FFF732FBA0EB09000228ADD84A
:102D700020684007F6D5286932689AFAAAF1B1FAB4
:102D800081F1884022F47C310143316013E000E09E
:102D9000AAE0206820F001002060FFF717FB8146C1
:102DA00006E000BFFFF712FBA0EB090002288DD858
:102DB00020684007F6D42878C00649D538684FF017
:102DC000F84AC0F3C200012817D000E0DAE0386802
:102DD000C0F3C200032805D1D8F8000000F00300BA
:102DE00001280AD0E8690028206822D040F080003D
:102DF0002060FFF7EBFA81460CE02068C0050CD597
:102E0000E869802870D108E0FFF7E0FAA0EB09003C
:102E10000228A2D82068C005F6D5286A32689AFA36
:102E2000AAF1B1FA81F1884022F0F8410143316002
:102E30000EE020F080002060FFF7C8FA064604E0AC
:102E4000FFF7C4FA801B022887D82068C005F7D492
:102E50002878000729D57A486969643000298146B5
:102E6000016811D041F001010160FFF7AFFA064699
:102E700005E000BFFFF7AAFA801B022897D8D9F80F
:102E800000008007F6D510E021F001010160FFF796
:102E90009DFA064605E000BFFFF798FA801B02285E
:102EA00070D8D9F800008007F6D42878800625D598
:102EB000A8690028206810D040F480502060FFF7F7
:102EC00085FA064605E000BFFFF780FA801B02285E
:102ED00058D820688004F7D510E020F48050206096
:102EE000FFF774FA064606E0D7E000BFFFF76EFA78
:102EF000801B022846D820688004F7D42878400731
:102F00004FD5DFF84091D9F8001041F48071C9F82D
:102F10000010FFF75BFA064605E000BFFFF756FA20
:102F2000801B64282ED8D9F80000C005F6D5444E81
:102F3000A868603601280AD008B1052813D0306887
:102F400020F001003060306820F0040002E03068BA
:102F500040F001003060A86841F2883A98B1FFF76C
:102F600035FA81460AE0306840F004003060EEE750
:102F7000FFF72CFAA0EB0901514503D83068800710
:102F8000F6D50EE088E0FFF721FA814606E000BFA3
:102F9000FFF71CFAA0EB090151457DD83068800786
:102FA000F6D4686AE8B33968C1F3C201032974D062
:102FB0000228206820F08070206003D0FFF706FA16
:102FC000054685E0FFF702FA064604E0FFF7FEF942
:102FD000801B022879D820688001F7D4EB6A40F280
:102FE000F332D8F800104FF4FE0755F8286F9143DC
:102FF00041EA03113143C8F80010287B4FF0FE4C22
:103000000F4EB5F8088040022B8A20362A7DA8F1A1
:103010000108311DA0F5007080B25B1EC8F30808DE
:1030200000E058E0521E07EA034340EA0800184354
:103030004FF6F8730CEA0262104330600A6803E04E
:10304000104402580048025893FAA3F72E6A244805
:103050009A43B7FA87F7BE4032430A600168AA690B
:1030600021F00C01114301600168EA6921F00201BD
:1030700011430160016841F480310160016841F44D
:1030800000310160016841F480210160016841F074
:1030900001010160206801E017E01EE040F080704F
:1030A0002060FFF793F9054605E000BFFFF78EF9B2
:1030B000401B022809D820688001F7D50BE000BF2B
:1030C000FFF784F9401B022802D90320BDE8F087EE
:1030D00020688001F4D40020F8E70120F6E7000022
:1030E0002C44025803490A6822F4600202430A6031
:1030F000704700000404005804284FF0E0200169E4
:1031000003D021F004010161704741F00401FAE7A6
:10311000014901200860704700000024401EB0F102
:10312000807F10B501D3012010BD4FF0E024606115
:103130000F21601702F01AFD0020A0610721216114
:1031400010BD10B5FFF7E4FF10BD704770470000D9
:1031500070B590F83C20012A1FD0012280F83C2055
:1031600002680F4C5368A242956802D00D4CA242EF
:1031700003D14C6823F4700323430C68896800264C
:1031800023F070031C43546025F080050268294336
:10319000916080F83C60304670BD022070BD000038
:1031A000000001400004014010B5040003D094F871
:1031B0003D0010B107E0012010BD002084F83C0064
:1031C000204600F00DF8022084F83D002068211D03
:1031D00001F09EFD012084F83D00002010BD00009C
:1031E00008B501681648B1F1804F0BD0154A9142DD
:1031F00010D1016841F002010160006800F0020096
:10320000009008BD016841F001010160006800F014
:103210000100F5E70C4A9142F3D1016841F0040145
:10322000016000680022114600F0040000901E209A
:10323000FFF79CF9BDE808401E20FFF789B90000A0
:10324000E84402580004004000080040022180F8D1
:103250003D10012201680B8843F001030B8080F8C8
:103260003D20002070470168CA6842F00102CA6030
:103270000068018841F001010180002070470000D2
:1032800070B5044690F83C00012817D0394E01254E
:1032900084F83C50022084F83D0022689068304059
:1032A00020F47F4090600868502838D00DDC20283A
:1032B0005AD005DC90B3102842D152E0022070BDF4
:1032C000302854D040283BD140E060282FD07028CF
:1032D0000BD0B0F5805F03D0B0F5005F30D111E0C6
:1032E0002068254A8168114016E04A682068D1E9C3
:1032F000021301F06FFD21688868304040F07700CC
:1033000088601DE04A682068D1E9021301F062FD7F
:103310002068816841F48041816011E01EE0CA6844
:103320004968206801F0ACFD2068502106E0CA68B9
:103330004968206801F0B5FD2068602101F054FD66
:10334000002084F83D5084F83C0070BDCA6849688C
:10335000206801F095FD20684021EFE720680021FA
:10336000ECE720681021E9E720682021E6E72068E3
:103370003021E3E788FFCEFFF8FFFEFF704770B50E
:103380000446006800250169C943890715D4C1684E
:10339000C943890711D4EA1E0261012121772068FF
:1033A00080698007204602D0FFF7E8FF04E000F0C4
:1033B000A5F8204600F0A3F8257720680169C943E5
:1033C000490717D4C168C943490713D402216FF0D4
:1033D0000402026121772068806910F4407F204652
:1033E00002D0FFF7CBFF04E000F088F8204600F0A1
:1033F00086F8257720680169C943090716D4C16892
:10340000C943090712D404216FF008020261217731
:103410002068C0698007204602D0FFF7AFFF04E0B4
:1034200000F06CF8204600F06AF825772068016902
:10343000C943C90617D4C168C943C90613D40821B2
:103440006FF01002026121772068C06910F4407F9C
:10345000204602D0FFF792FF04E000F04FF820462C
:1034600000F04DF8257720680169C943C90708D1E4
:10347000C168C943C90704D1891E0161204600F013
:103480003FF820686FF080050169C943090607D439
:10349000C168C943090603D405612046FFF755FEFC
:1034A00020680169C943C90507D4C168C943090631
:1034B00003D405612046FFF748FE20680169C9432F
:1034C000490609D4C168C943490605D46FF04001D3
:1034D0000161204600F03EF820680169C943890671
:1034E0000BD4C168C943890607D46FF0200101617C
:1034F0002046BDE87040FFF729BE70BD7047704799
:103500000249884201D103F067BA70476805002478
:1035100070B5044690F83C00012819D0012584F8C4
:103520003C50022084F83D00204601F067FC2068F2
:103530000021C26822F04002C2602068C26822F402
:103540008042C26084F83D50084684F83C1070BD4B
:10355000022070BD7047704710B5044690F879009E
:1035600021280ED12068816809060AD5816821F0DA
:1035700080018160206F08B1FDF7E4FE204601F074
:1035800098FD94F87A0022280ED1206881684906B7
:103590000AD5816821F040018160606F08B1FDF7B4
:1035A000D1FE204601F077FD002010BD70470000DD
:1035B00070B502680446D0691368916810F00F0F67
:1035C00064D0594D03F490760D40354376D0C5074D
:1035D00007D0DD0505D501251562E26F42F0010235
:1035E000E267820708D5CA0706D0256802222A6248
:1035F000E26F42F00402E267420708D5CA0706D02C
:10360000256804222A62E26F42F00202E2670207A2
:103610000ED503F0200201F080552A4352EAC17210
:1036200006D0256808222A62E26F42F00802E267AB
:10363000E26F002A3AD0800608D503F0200001F09E
:103640008051084302D0204601F03CFDE06F0007A6
:1036500003D42068806840062AD5204601F01BFD6F
:103660002068816849061ED5816821F0400181608B
:10367000606FC0B12D490165606FFDF7D5FE002870
:1036800014D0606F016DBDE870400847850615D500
:1036900003F0200501F0805635430FD02046BDE8E9
:1036A000704001F00FBD2046FFF780FF70BD05E0C0
:1036B0002046FFF77BFF0020E067F7E7C6024FF0E8
:1036C00020050CD54E020AD5E803106284F8795023
:1036D00084F87A502046BDE87040FFF73CBF0606EC
:1036E0000AD503F0800601F400010E4304D0204601
:1036F000BDE8704001F096BF41060BD5590609D5CB
:103700001168204621F04001116084F8795000F0E2
:10371000EAF8CBE70002C9D55800C7D5106820F0F9
:1037200080401060C2E7000001000010EB4F00086D
:1037300010B5040003D094F8790010B107E001201F
:1037400010BD002084F87800204600F026F82420E0
:1037500084F879002068016821F0010101602046A9
:1037600001F0ECFC0128EBD0606B10B1204601F0B9
:10377000AAFB2068416821F490414160206881687B
:1037800021F02A0181602068016841F00101016097
:103790002046BDE8104001F0FABB704770B5044602
:1037A00090F87A00202839D1A9B3A2B394F8780010
:1037B000012833D0012384F8783061660025A4F80D
:1037C00068202220E56784F87A001346616F144868
:1037D000C863616F13480864616F1348C864606F01
:1037E0000565666E2168606F32462431FDF73AFF49
:1037F00084F878502068016841F480710160206885
:10380000816841F0010181602068816841F04001D8
:103810008160002070BDFFE70120FBE70220F9E78F
:10382000515000088D500008FF4F00087047704746
:103830002DE9F843044690F879001F4616460D46D8
:1038400020284ED1C5B1BEB194F87800012848D0E7
:10385000012284F8782021214FF00008C4F87C80F0
:1038600084F879106034FEF7B1FD268081466680C9
:10387000603C4FF4805619E00120BDE8F88300BF9A
:10388000B4F86200401EA4F8620000224B4680217A
:103890002046009701F001FFA0B9A068B04201D115
:1038A000206988B115F8010B21680885B4F8620019
:1038B0000028E5D100224B4640212046009701F028
:1038C000ECFE38B10320D8E735F8020B2168C0F3CD
:1038D0000800EAE7202184F87910002084F8788035
:1038E000CBE70220C9E77047FEE7000070B50D4D39
:1038F0004FF4807421462846FEF75AFD38B91E2041
:10390000FDF718FF21462846FEF752FD08B10020BA
:1039100070BD21462846FEF74BFD0028F9D0012056
:1039200070BD00000020025870B50D4D4FF40054DA
:1039300021462846FEF73CFD38B91E20FDF7FAFE69
:1039400021462846FEF734FD08B1002070BD21460F
:103950002846FEF72DFD0028F9D0012070BD00009B
:103960000008025870B50D4D4FF48064214628467A
:10397000FEF71EFD38B91E20FDF7DCFE2146284665
:10398000FEF716FD08B1002070BD21462846FEF75F
:103990000FFD0028F9D0012070BD00000020025862
:1039A00070B50D4D4FF4006421462846FEF700FD2A
:1039B00038B91E20FDF7BEFE21462846FEF7F8FC6A
:1039C00008B1002070BD21462846FEF7F1FC002812
:1039D000F9D0012070BD00000020025870B586B0FB
:1039E00014216846FCF7F5FC2048016841F4807119
:1039F0000160016801F480710591016841F00401E2
:103A00000160016801F004010591016841F48071D1
:103A10000160016801F480710591016841F48071D1
:103A20000160006801250024114E00F480700590AB
:103A3000280269468DE831003046FEF7BFFB680377
:103A400069468DE831000B48FEF7B8FBA8026946CD
:103A50008DE831003046FEF7B1FBE80269468DE89B
:103A600031003046FEF7AAFB06B070BDE0440258B4
:103A7000002002580008025808B50020694600904E
:103A8000FDF7ACF9009840F48050009081B200201E
:103A9000FDF7B2F908BD000038B5244C0020012222
:103AA0006B46009022482168FEF72CFA6FF004055F
:103AB00028BB1F48012221686B46FEF723FAF0B9A4
:103AC0000098400701D4012038BD19480022216820
:103AD0006B46FEF717FA90B90099C80408D44FF462
:103AE000045088431CD088041CD4C8051CD415E09D
:103AF0000F481F2221686B46FEF704FA08B12846DA
:103B000038BD0098C10401D4062038BDC0F382003E
:103B1000062805D0022805D0052805D0052038BD87
:103B2000022038BD032038BD042038BD2000002409
:103B3000DC05002438B5204D2020002100910C46E2
:103B4000286012221D486B462146FEF7DBF920B1A2
:103B50001BA0214601F0E6FF06E0009800F01F00E0
:103B6000A04201D12C6003E02868641C8442E8D99B
:103B70001AA0214601F0D6FF29684FF0FF341F2913
:103B800006D80E4800224FF40043FEF7E5FA08B1CC
:103B9000204638BD0948002229686B46FEF7B2F975
:103BA00018B113A001F0BEFFF2E700980004F1D4B1
:103BB000FFF762FF002038BD20000024DC05002450
:103BC00052656164204164647265737320256420CA
:103BD0006572726F72200D0A000000006C616E3811
:103BE00037323061646472203D2025640D0A000084
:103BF00048414C5F4554485F526561645048595292
:103C000065676973746572204C414E383732305F96
:103C1000424352204572726F72200D0A000000006C
:103C20002DE9F04186B014216846FCF7D2FB264806
:103C3000016841F010010160016801F01001059177
:103C4000016841F010010160016801F01001059167
:103C5000016841F002010160006800221B4F202131
:103C600000F0020005903846FEF7ABFB0022384614
:103C70004021FEF7A6FBDFF858804FF48056002263
:103C800031464046FEF79DFB002469460125202071
:103C90000090CDE9015438460394FEF78FFA402096
:103CA0000090CDE90154694638460394FEF786FA40
:103CB00000966946CDE9015440460394FEF77EFA2A
:103CC00006B0BDE8F0810000E04402580010025840
:103CD000000402587FB5FEF7E3FB01258DF80F5075
:103CE00000248DF80E4007208DF8080003268DF87B
:103CF0000B60174968468DF800508DF80D408DF81F
:103D00000A4001918DF801408DF809408DF80C4072
:103D1000FEF798FB0D208DF808008DF80F406846DF
:103D20008DF80B608DF80E500A498DF800508DF813
:103D30000D408DF80A4001918DF801508DF8094031
:103D40008DF80C40FEF77EFB0420FEF7B7FB7FBD2D
:103D500000000430004004302DE9FC4111480122EC
:103D60000F4F002103254FF4BF6645230760192438
:103D70008DF800208DF801108DF804508DF8023078
:103D80008DF805108DF80340C0F804D00649027282
:103D9000C1600649C0E90416FDF7CAFEBDE8FC8112
:103DA00000800240DC050024600004300000043084
:103DB00011480021114AEF2330B587B0C0E9021243
:103DC000802484614FF080450161C0E90053FFF712
:103DD000EBF960010390084803A9FFF751FA20208E
:103DE0000090054869460294FFF7B2F90248FFF7D0
:103DF0002DFA07B030BD0000E80400243F420F0058
:103E00000F484CF2503110B500240C4B86B0802284
:103E1000C0E90034C0E9024104618261FFF7C4F9DE
:103E2000072010218DE8130005486946FFF770FB55
:103E30000348FFF70BFA06B010BD00000004004075
:103E4000280500240F4840F2E73110B500240C4B40
:103E5000C72288B0C0E902410461C0E90032FFF71F
:103E6000A3F94FF480500390064803A9FFF708FA1E
:103E70000448694600940294FFF76AF908B010BD3F
:103E800000080040680500243E4870B586B001680F
:103E900041F002010160006800F00200059039481D
:103EA0000830016841F480210160006800F480203E
:103EB000059034480838016841F00101016000684C
:103EC000142100F0010005906846FCF782FA0722F1
:103ED0002D4E002403214FF4806500950220CDE98A
:103EE0000312CDE9010469463046FEF767F9680020
:103EF000694600903046FEF761F9254E2D21234892
:103F00003060E801C6E90114C6E903457461B46193
:103F1000C6E9074030467462FDF7D2FAA6F1800583
:103F20001C484FF4E1310C226E67B56385E813003D
:103F3000EC602846C5E90442AC61EC612C626C621D
:103F4000AC626C63FFF7F4FB13494FF480722846B0
:103F5000FFF724FC2868016841F01001016000228D
:103F600001212720FEF702FB2720FEF7F1FA0022AD
:103F700002210C20FEF7FAFA0C20FEF7E9FA06B04F
:103F800070BD0000E04402580004025828000240BE
:103F90007004002400480040C0000024FEE7F6EE54
:103FA000001A2DE9F04170EEA10A31EE212A012715
:103FB000044680F828700026BCEEE01AFCEEC20A27
:103FC000E66211EE103A10EE905A84F8487070EEE6
:103FD000211A666303EB5500B0FBF5F0FCEEE10A35
:103FE000C4E9043510EE901AA0FB007CC4E9065029
:103FF0002062A5FB072E06FB07E705FB0C777F0871
:104000004FEA32024FEA420700EE907AC4E900120A
:10401000A260F8EE600AF4EEC00AF1EE10FA21DBBD
:1040200000232A4608461946FCF752F9002200E010
:10403000521CA2FB02733F1A8B41F9D35300E66076
:10404000A5FB0201E261C4E90823A0FB023501FBE4
:10405000025100FB061040084FEA33006060A06088
:10406000BDE8F0818D1A4100A81AE060B0FBF3F2C0
:1040700050186062F4E72DE9F04790F848200446B4
:1040800000205AB194F828208046012A09D0022A3B
:1040900024D0032A34D0042A5FD15BE00020BDE89D
:1040A000F087E56A6069A0FB0512A1FB050302FB2E
:1040B000053201FB082102220023FCF73AF9E269EC
:1040C0006D1CE562954248D9E268C4F82C800AB1BB
:1040D000022200E0032284F828203EE0E36A414601
:1040E000D4E9036560685A1CE2626A43E5FB030198
:1040F000921B78EB080230DB0322C4F82C80EAE73D
:10410000D4F82C90A0694E46A0FB061208FB0922A9
:1041100000FB0822A1FB060302FB063201FB08217B
:1041200002220023FCF705F9D4E903720346606814
:1041300006F1010A3844276AA2FB09C8C4F82CA07A
:10414000BCEB0303C018BA4507D3042284F8282027
:10415000206002E0206884F84880626C521C00D124
:104160004042616B401A0144616300B297E700006E
:104170002DE9F0470628894605462DED028BB0EE65
:10418000608AF0EE408A33D81B4805EB850100EBCE
:10419000011450212046D4E90C67D4F83C80FCF788
:1041A00018F916480121C4F83C8084F84810C4E985
:1041B0000C6750F82500D0F80310E163B9EB01005B
:1041C00001D4012201E04FF0FF32626400EE100AD8
:1041D00021632046B0EE481AF0EE680ABDEC028B6F
:1041E000B8EEC00ABDE8F047B0EEC00AFFF7D7BE90
:1041F000BDEC028BBDE8F087C0010024B41600249A
:1042000070B51F4900EB800001EB001494F84800E2
:10421000002834D094F82800032830D2E66A012818
:104220004FF0000506D0022808D0BDE8704015A068
:1042300001F078BC65601BA0E56006E022692946B4
:104240006068E2FB0601E06021A001F06BFCD4E9AC
:104250000F01401A00D54042E5620321206127A0EA
:1042600084F82810314601F05DFC61682AA001F055
:1042700059FCE16831A0BDE8704001F053BC70BD4D
:10428000C00100245BBDD7B6CE5D20B7C7B7A8D7A5
:10429000B4CCACA3ACC7BFD6C6CDCBB3F6C8EDCDBE
:1042A000A30D0A005BBDD7B6CE5D20B5B1C7B0CEB9
:1042B000AABCD3CBD9BDD7B6CEA3A872756E5F7397
:1042C00074617465203D2031A3A90D0A000000002F
:1042D0005BBDD7B6CE5D20B5B1C7B0CEAAD4C8CB32
:1042E000D9BDD7B6CEA3A872756E5F7374617465BD
:1042F000203D2032A3A90D0A00000000B5B1C7B0CF
:1043000020745F636F756E74202020202020203A77
:1043100020256C750D0A0000B5B1C7B020535F6150
:1043200063632020202020202020203A2025752093
:1043300070756C7365730D0A00000000B5B1C7B0ED
:1043400020535F666C617420202020202020203ABA
:104350002025752070756C7365730D0A00000000D0
:10436000FEF75CBC70B59EB02848002519A9FDF782
:1043700031FB01208DF86400244819A9FDF700FEE7
:10438000234E002400232146C4EB841000EBC4100C
:1043900006EBC0021D48FDF71BFA641C042CF1D388
:1043A000FFF7C8FB6420FDF7C5F9FFF775FB6D1C2F
:1043B000012807DC142DF5DB142116A001F0B2FB57
:1043C0001EB070BD02284FF400554FF4804409D050
:1043D000032804D0042804D0052803D113E00025C5
:1043E00000E0002409486946FDF70EFA07486946CF
:1043F000CDE90545FDF7B8FD0448FDF7F1FD03489B
:10440000FDF7AAF9DCE70025EBE70000DC05002456
:10441000000204304C414E38373230206C696E6BEC
:10442000206661696C65642061667465722025642C
:1044300020617474656D7074732E0D0A00000000A5
:104440007047000070B50D00064686B01DD0B5F56A
:10445000807F1AD810A001F065FB002404E0315DD4
:1044600011A001F05FFB641CAC42F8DB0FA001F06F
:1044700059FB14216846FBF7ACFF6946304600F053
:10448000D1FA20B1684600F0A1F906B070BD08A0CD
:1044900001F048FBF9E70000BDD3CAD5B5BDB5C4EE
:1044A000CAFDBEDD3A200000256300000D0A200091
:1044B000D6B8C1EEB8F1CABDB4EDCEF3A3A1C7EB37
:1044C000CAE4C8EB2048454C5020B2E9BFB4B0EF75
:1044D000D6FAA1A30D0A00002DE9F0470446584979
:1044E000C0EBC40000EB441031F83000082805D0C0
:1044F0002146BDE8F04753A001F014BBDFF87091EE
:10450000214659F824000288100704D4BDE8F0477A
:1045100058A001F007BB66A001F004FB544DC82071
:104520004FF080081C3D55F82410A1F80080FDF7DD
:1045300001F9694E04EB44074FF0000A09E000BF9F
:1045400010F0FF0009D0012818D002282DD0032830
:1045500040D0504606F827A0F2E755F8242008215D
:10456000A2F8008055F8240081705CA0214601F07B
:10457000D9FAC820FDF7DEF8012013E055F8241021
:104580000620088059F8240055F82410D0F80300BC
:10459000C1F80F0056A0214601F0C4FAC820FDF76B
:1045A000C9F8022006F82700CAE755F824100720AA
:1045B000088059F8240055F82410D0F80300C1F8F9
:1045C0000F0050A0214601F0ADFAC820FDF7B2F867
:1045D0000320E7E755F824100F20088059F824003D
:1045E00055F82410D0F80300C1F80F004AA0214666
:1045F00001F098FA59F82400214602884BA001F0F6
:1046000091FAC820FDF796F859F8240000780007C1
:1046100009D54CA0214601F085FA55F824205046D2
:10462000A2F80080BEE70420214606F827004DA02E
:1046300001F078FA16F82700042881D3BDE8F08746
:10464000E01600245B417869732025645D203F20DB
:10465000B2BBD4DA204F5020D7B4CCACA3ACCCF84A
:10466000B9FDB9CAD5CFBBD6B8B4A1A30D0A000015
:10467000B41600245B417869732025645D203F20D7
:10468000C3BBD3D0B9CAD5CFA3A853746174757313
:10469000576F7264203D20307825303458A3A9A389
:1046A000ACCEDED0E8B8B4CEBBA1A30D0A000000AA
:1046B0005B417869732025645D203F3F20BCECB2EC
:1046C000E2B5BDB9CAD5CFA3ACBFAACABCB8B4CEF7
:1046D000BB2E2E2E0D0A000044060024B4D3D5BEF6
:1046E0002564206361736520302E0D0A00000000F0
:1046F000B4D3D5BE2564206361736520312E0D0AC5
:1047000000000000B4D3D5BE25642063617365202A
:10471000322E0D0A00000000B4D3D5BE25642063FC
:1047200061736520332E0D0A00000000B4D3D5BE9E
:104730002564D7B4CCACD7D6A3BA3078253034585A
:104740002E0D0A00B4D3D5BE2564B8B4CEBBCAA71B
:10475000B0DCA3ACD6D8D0C2B3A2CAD42E2E2E0DB4
:104760000A000000B4D3D5BE2564D2D1B3C9B9A61E
:10477000D6D8D0C2C9CFB5E7D4CBD0D0A1A30D0A2B
:10478000000000000E49002070B50860BFF34F8F95
:10479000081F43F6FF7300680A4DC0F34E31C0F3A3
:1047A000C90203EA4114104644EA80762E60401E96
:1047B000FAD2491EF5D2BFF34F8FBFF36F8F70BD92
:1047C00084ED00E074EF00E07047000010B5017860
:1047D0000446394808296CD2DFE801F06B04152A39
:1047E0001F6B2B544021FDF7E8FDD4ED040A94ED36
:1047F000030A2079A168BDE81040F8EEE00AB8EE9F
:10480000C00AFFF7B5BC2D484FF48051FDF7D5FD28
:104810002079BDE81040FFF7F3BC01242046FFF7E4
:10482000EFFC6420FCF786FF641CE4B2062CF5D98B
:1048300010BD23A001F076F924A001F073F931A096
:1048400001F070F939A001F06DF941A001F06AF9A9
:1048500048A001F067F93EA001F064F94EA001F014
:1048600061F954A001F05EF958A001F05BF95BA07A
:1048700001F058F95EA001F055F961A0BDE81040C3
:1048800001F050B92021FDF798FDFFF765FAFFF719
:10489000D9FAFFF7B5FAFFF78BFAFFF763FD62B6B7
:1048A00001F0ECFE5B48FEF7DEFCBDE8104000F0D6
:1048B0006FBF59A0E2E70000001002580004025840
:1048C000D6A7B3D6D6B8C1EE3A0D0A002020312EB5
:1048D000BFD8D6C6B5A5B8F6B5E7BBFAB0B4D5D53E
:1048E000B8F8B6A8BCD3CBD9B6C8A1A2CBD9B6C8A4
:1048F000D4CBD0D0C4B3B8F6CEBBD6C3A1A30D0AD7
:104900000000000009D6B8C1EEB0B8C0FDA3BA4D92
:104910003120474F544F2031303030205620313035
:104920002041203130A1A30D0A0000002020322EAA
:10493000BFD8D6C6B5A5B8F6B5E7BBFACDA3D6B9EC
:10494000B5B1C7B0B2D9D7F7A1A30D0A00000000D6
:1049500009D6B8C1EEB0B8C0FDA3BA4D312053544A
:104960004F50206F72204D3120535441545553A164
:10497000A30D0A002020332EBFD8D6C6B5A5B8F6A1
:10498000B5E7BBFACDA3D6B9B5B1C7B0B2D9D7F7A1
:10499000A1A30D0A000000002020342EBFD8D6C6E7
:1049A000CBF9D3D0B5E7BBFACDA3D6B9A1A30D0AF5
:1049B0000000000009D6B8C1EEB8F1CABDA3BA41E3
:1049C0004C4C2053544F50A1A30D0A002020352EEB
:1049D000BFAABBFAA1A30D0A0000000009D6B8C106
:1049E000EEB8F1CABDA3BA494E4954A1A30D0A00BD
:1049F0002020362EB0EFD6FAA1A30D0A0000000049
:104A000009D6B8C1EEB8F1CABDA3BA48454C50A109
:104A1000A30D0A0068050024CEB4D6AAD6B8C1EE0C
:104A20000D0A0000F0B5A1B00C463F22014610A8C7
:104A3000FBF7DAFC00268DF87F6010AD04E000BFC4
:104A4000FBF7A8FC05F8010B28780028F8D14021D5
:104A50006846FBF7BEFC002545A110A8FBF7E8FC63
:104A60006F4606E047F8250000206D1C40A1FBF7CB
:104A7000DFFC08B1102DF5DB4FF0FF302670C4E9E4
:104A80000106E660032D266103DB009800784D28BF
:104A900004D0022D35D0012D57D065E00098401C80
:104AA000FBF7E8FC606033A10198FBF7A9FC002844
:104AB0005AD1012020700298FBF7DCFC0326A0608D
:104AC0001BE000BF57F826002CA1FBF799FC30B182
:104AD00057F826002AA1FBF793FC38B10CE007EB4E
:104AE00086004068FBF7C6FCE06005E007EB860047
:104AF0004068FBF7BFFC2061761C701CA842E1DB1C
:104B000032E0009800784D28009804D01DA1FBF7F2
:104B100077FC98B128E0401CFBF7ACFC60601AA160
:104B20000198FBF76DFC28B1019819A1FBF768FC0F
:104B300010B119E0022016E0032014E0019812A140
:104B4000FBF75EFC80B904200DE0009812A1FBF792
:104B500057FC28B1009812A1FBF752FC10B103E0FA
:104B6000062000E007202070207821B0F0BD000072
:104B7000200D0A00474F544F00000000560000006F
:104B800041000000414C4C0053544F5000000000C5
:104B9000535441545553000048454C500000000008
:104BA000494E49540000000010B5FDF715FCBDE862
:104BB0001040FEF7C6BA0000F0B59DB04C21684623
:104BC000FBF707FC202113A8FBF703FC284801682A
:104BD00021F00401016026480C300024016841F4F2
:104BE00040410160016801F440411B910168890462
:104BF000FCD5204A0220082511680126C30321F0B4
:104C000003070521BF1C17600AAF0990C02287E87F
:104C100007000F90CDE910540D90CDE900630E9080
:104C200068461294FEF70AF840201A903F210301CB
:104C3000CDE916500322CDE9180313AB13A883E87E
:104C400016000221FDF716FEFDF702FF0A494FF498
:104C50007A700968B1FBF0F0FEF760FA0420FEF705
:104C60004BFA0022501E1146FDF780FC1DB0F0BD2E
:104C70000C48025828440258100000241D4AF0B580
:104C80001D49146800201C4B44F470041460103358
:104C90000A681A4C42F001020A6018600D68164A50
:104CA00025400D601832131D1C1D134D1060283552
:104CB00018602A1D2060131D1C1D2860251D106012
:104CC0002A1D1860131D20601C1D286010601860CC
:104CD00020600A680124084B064FE606084D603341
:104CE000803F22F480220A601860C5F808413E60C7
:104CF000F0BD000088ED00E0004402587FEDF6EAC8
:104D0000008000510148FEF73ABB0000680500240E
:104D10002DE9F047274B4FF0804A274D02889842F3
:104D2000264E274F274C09D0504507D0A84205D022
:104D3000B04203D0B84201D0A04205D1D1F804C09E
:104D400022F070024CEA0202DFF87CC0DFF87C80BF
:104D50009842DFF87C900FD050450DD0A8420BD080
:104D6000B04209D0B84207D0A04205D0604503D078
:104D7000404501D0484503D1CD6822F440722A4312
:104D80008D8A22F080022A43028098428A68C26299
:104D90000A88028507D0A04205D0604503D040456F
:104DA00001D0484501D1098A018601214161BDE850
:104DB000F0870000000001400004004000080040AF
:104DC000000C00400004014000400140004401404C
:104DD0000048014042EA032283680A4323F47F41EA
:104DE0000A43826070470000034B82681A400A43FE
:104DF00042F00701816070478FFFCFFFF0B4056874
:104E0000D1E900321C4F1D4EAC683C402243324079
:104E10001343AB604A6812F00F0F1FD11211082A1A
:104E20001CD2DFE802F01B1B1B1B0B1D23048A682E
:104E30000068D1E90313F0BCFFF7CCBF0268136A26
:104E4000146A24F00104146202680C69916921F06B
:104E5000F00141EA0411916100680362F0BC7047FF
:104E60000A6900688968F0BC00F00AB80A6900683D
:104E70008968F0BC00F015B88FFFCFFFF8FFFEFF88
:104E800010B5036A046A23F00A0324F001040462E3
:104E900084690B4324F0F00141EA0211816103624D
:104EA00010BD10B5036A23F0100303628369046A1E
:104EB00023F4704324F0A00443EA0232826144EAFE
:104EC0000111016210BD90F83410C90706D00168C5
:104ED000836B4A6822F400321A434A6090F8341017
:104EE000890706D50168C36B4A6822F480321A43E9
:104EF0004A6090F83410490706D50168036C4A6887
:104F000022F480221A434A6090F83410090706D52B
:104F10000168436C4A6822F400421A434A6090F8E0
:104F20003410C90606D50168836C8A6822F4805261
:104F30001A438A6090F83410890606D50168C36C5C
:104F40008A6822F400521A438A6090F834104906A5
:104F500011D50168036D4A6822F480121A434A6031
:104F6000016DB1F5801F06D10168436D4A6822F4D6
:104F7000C0021A434A6090F83410090606D5016849
:104F8000826D486820F40020104348607047F8B5EF
:104F900000260446C667FDF719FA054620686FF03B
:104FA0007E470068000708D500222B464FF4001109
:104FB0002046009700F071FB60B920680068400748
:104FC0000AD500222B464FF480012046009700F0BE
:104FD00064FB08B10320F8BD202084F8790084F830
:104FE000786084F87A000020F8BD10B5806B00214D
:104FF000A0F86A10A0F86210FEF7D8FA10BD70B5DC
:10500000846BFCF75BFA022821D094F87900002524
:10501000212808D120688068000604D5A4F86250D1
:10502000204600F046F894F87A00222808D120683B
:105030008068400604D5A4F86A50204600F02BF89A
:10504000E06F40F01000E0672046FEF7AFFA70BD59
:1050500010B5C169806BB1F5807F14D00021A0F834
:105060006A10202201680B6823F480730B600168CA
:105070008B6823F001038B6001688B6823F0400389
:105080008B6080F87A20FEF7D1FB10BD10B5806BE5
:10509000FEF7CDFB10BD016820220B6823F490734E
:1050A0000B6001688B6823F001038B6080F87A2025
:1050B0007047016820220B6823F0C0030B6080F862
:1050C0007920704710B590F87A10B0F86C2022293A
:1050D000016805D0088B40F008000883022010BD4D
:1050E000898C8368B3F5805F01D103696BB1436E2E
:1050F00011405A1C42661970B0F86A10491E090422
:10510000090CA0F86A1007D015E0436E1140198011
:10511000416E891C4166EFE7016820220B6823F489
:1051200090730B6001688B6823F001038B6080F83B
:105130007A20FEF77BFB002010BD00002DE9F04F28
:1051400004460268816887B0C369D4E90465806A4F
:105150003143F84E1D4313682943DFF8DC930843BD
:105160008025334000210343136020680F46E36825
:10517000426822F440521A4342602368A0694B45BA
:1051800001D0226A1043A26AB2F1005F03D1D4E9D0
:105190000B2632431043D3F808C0DFF8A083E84E53
:1051A000E84A0CEA080C4CEA000CC3F808C0206876
:1051B000D4F824C0C36A23F00F0343EA0C03C3628C
:1051C0002068B04210D1126802F03802182A74D058
:1051D00005DCCAB3082A7AD0102A47D179E0202A00
:1051E0007BD0282A7CD17AE0D74B984209D112682B
:1051F00002F00702062A73D2DFE802F053696B6DF2
:105200006F71D24B984209D1126802F00702062A48
:1052100066D2DFE802F0465C5E606264CC4B984286
:1052200009D1126802F00702062A59D2DFE802F01B
:10523000394F51535557C74B98420BD1126802F062
:105240000702062A4CD200E00EE0DFE802F02A4016
:1052500042444648C04B984209D1126802F03802D5
:10526000182A38D0BBDCB4E74FF0010538E0BB4B5F
:10527000984209D1126802F00702062A30D2DFE80C
:1052800002F01026282A2C2EB54B98420BD112681A
:1052900002F00702062A23D2DFE802F003191B1DE1
:1052A0001F2100251CE048451AD1A64A121D12688C
:1052B00002F00702062A13D202E00CE007E00CE03D
:1052C000DFE802F0030507090B0D022508E00425BD
:1052D00006E0402504E0082502E0102500E0202536
:1052E000A04EDFF884A24845DFF880B27DD1102DB2
:1052F00031D006DC022D09D0042D0AD0082D2FD183
:1053000011E0202D29D0402D2AD107E0FDF77AF9B0
:1053100013E06846FDF78CF901980EE003A8FDF74D
:1053200017FA049809E0DBF800005946800610D50A
:105330000968C1F3C1012AFA01F0002811D061689F
:10534000894601EB410181420AD8B0EB093F07D8F9
:1053500008E05046F3E78648F1E74FF40040EEE7F7
:10536000012759E1102D4FF000085BD006DC022D1B
:1053700011D0042D20D0082D04D13AE0202D57D093
:10538000402D1ED001277B4AA0F540719142E7D8FD
:105390002168C86040E1FDF735F9626A00234146A3
:1053A00036F81220FAF794FF6268090241EA1061A8
:1053B000034650081B0216E06846FDF739F90198CC
:1053C00003E003A8FDF7C4F904980023616A36F8E6
:1053D00011201946FAF77CFF626803461D0E50083B
:1053E0001B0245EA0121181800E036E041EB0801F4
:1053F00014E0DBF800005946800609D5096800234F
:10540000C1F3C1012AFA01F0616A36F8112015E0F2
:10541000606A002336F8102050460FE00023FAF7A8
:1054200057FFB0E7606A002336F81020504805E0C7
:10543000606A002336F810204FF400400021FAF78C
:1054400047FF02464FEA5900130E120210184A464F
:1054500043EA012141EB0801E0E7E3694FF4004230
:10546000934257D1082D2BD005DC95B1012D13D0D7
:10547000042D06D118E0102D3DD0202D43D0402D15
:1054800018D00127226821F00F00C1F34201084320
:105490009CE0FDF7FFFA01E0FDF712FB0146606AB0
:1054A00036F8102060682BE06846FDF7C1F8626AA4
:1054B000019922E003A8FDF74BF9626A04991CE008
:1054C000DBF800105846626A890608D5036836F88A
:1054D00012206068C3F3C1032AFA03F110E036F822
:1054E00012206068BAFBF2F1490001EB5001B1FBF8
:1054F000F0F081B2C6E71E49626A606836F8122091
:10550000B1FBF2F1F0E7616A606836F81110B2FBA6
:10551000F1F1E9E7082D5BD02EDC55B1012D46D025
:10552000042D7FF41DAF6846FDF782F8626A019989
:105530002DE039E0F369FFCF000C0058FFF4FF11B4
:10554000001001405444025800440040004800400C
:10555000004C004000500040001401400078004022
:10556000007C00406CC000080090D003004402584A
:1055700000093D00FFFC0F00102D3ED0202D3FD034
:10558000402DCED103A8FDF7E3F8626A0499D4E96F
:10559000003036F81220B1FBF2F101EB5001B1FB03
:1055A000F0F080B2D86037E0FDF774FA01E0FDF763
:1055B00087FA0146606A36F81030D4E90020B1FB62
:1055C000F3F101EB5001B1FBF0F080B2D06023E0C9
:1055D000DBF800205946636A920608D50D686168B9
:1055E00036F81330C5F3C1042AFA04F20CE036F899
:1055F00013306168BAFBF3F208E0094A636A00E01D
:10560000636A616836F81330B2FBF3F202EB5102C1
:10561000B2FBF1F189B2C16007B03846BDE8F08F46
:1056200000093D0090F87910212901D0022070472F
:10563000B0F8621021B18168B1F5805F13D014E039
:1056400001680A68920004D58A6822F400028A6020
:1056500003E00A6822F080020A600068016841F0F5
:10566000400101600DE0016969B1C16D4A1CC2656C
:1056700002680978A2F82810B0F86210491EA0F854
:10568000621000207047C16D02680988C1F30801EB
:105690001185C16D891CC165EEE72DE9F041984681
:1056A00017460E460446069D1DE0681C1BD02DB112
:1056B000FCF78CFEA0EB0800A84214D9216820203A
:1056C00000220B6823F4D0730B6021688B6823F0F1
:1056D00001038B6084F8790084F87A00032084F851
:1056E0007820BDE8F0812068C06936EA000004D067
:1056F0000020B842D9D00020F3E70120F9E70000EC
:105700001E4810B5FDF754FF1C480068C169C90662
:1057100032D51B491023036208684068C0F58070C9
:1057200084B21648FDF718FF164920222046BFF321
:105730004F8F154B02E0801A196011440028FADCE3
:10574000BFF34F8FBFF36F8F601EFF280CD80D493A
:10575000FF2C4FF0000001D8085501E081F8FF0050
:1057600021460848FEF76EFEBDE8104005494FF49B
:1057700080720248FEF712B810BD0000F00300244A
:1057800070040024C00000245CEF00E0FEE700008D
:105790002DE9F05FDFF86491D9F8000000287DDD85
:1057A000DFF85C810124574D4FF0020A564E4FF04E
:1057B000800B8AE010F0FF0007D0012816D00228E5
:1057C0002DD0032844D000203FE055F824200820A5
:1057D000A2F800B055F8241088704CA0214600F0C3
:1057E000A1F9C820FBF7A6FF01202EE055F82410F0
:1057F00006200880434855F824101C3050F8240037
:10580000D0F80300C1F80F0045A0214600F08AF946
:10581000C820FBF78FFF504606F827A0CAE755F8C7
:10582000241007200880374855F824101C3050F801
:105830002400D0F80300C1F80F003EA0214600F07C
:1058400071F9C820FBF776FF032006F82700B1E7BF
:1058500055F824100F2008802A4855F824101C30D1
:1058600050F82400D0F80300C1F80F0036A02146FC
:1058700000F058F9234821461C3050F824000288D3
:1058800036A000F04FF9C820FBF754FF1D481C302C
:1058900050F824000078000707D500E02CE055F808
:1058A00024200020A2F800B0CFE7042006F827004B
:1058B00006E000BF04EB440716F827000428ADD328
:1058C0002CA0214600F02EF9641CD8F800108C4260
:1058D000F0DD012007E000BF00EB400216F82220B7
:1058E000042A09D1401C8842F6DDC9F800A026A090
:1058F000BDE8F05F00F016B9BDE8F09F2800002475
:10590000800000249816002444060024B4D3D5BE99
:105910002564206361736520302E0D0A00000000AD
:10592000B4D3D5BE2564206361736520312E0D0A82
:1059300000000000B4D3D5BE2564206361736520E8
:10594000322E0D0A00000000B4D3D5BE25642063BA
:1059500061736520332E0D0A00000000B4D3D5BE5C
:105960002564D7B4CCACD7D6A3BA30782530345818
:105970002E0D0A00B4D3D5BE2564B3F5CABCBBAFA7
:10598000CDEAB3C92E0D0A00CBF9D3D0D6E1B3F5D9
:10599000CABCBBAFCDEAB3C9A3ACBDF8C8EBD4CB8E
:1059A000D0D0C4A3CABDA3A10D0A000070B504469F
:1059B000014648A000F0B6F8002341F612461A4608
:1059C0003146204606F03EFB002320464FF4B055FA
:1059D0001A46294606F036FB484B01222946204646
:1059E00006F020FB464B02222946204606F01AFB11
:1059F000444B03222946204606F014FB424B042266
:105A00002946204606F00EFB404B0522294620463B
:105A100006F008FB3E4B06222946204606F002FB14
:105A2000082329460722204606F0FCFA07232946C8
:105A30000022204606F006FB01222B463146204676
:105A400006F0E0FA012331460022204606F0FAFA79
:105A500000232046761C1A46314606F0F3FA00234E
:105A600020464FF4D0551A46294606F0EBFA294B4A
:105A700001222946204606F0D5FA274B0222294664
:105A8000204606F0CFFA254B03222946204606F091
:105A9000C9FA234B04222946204606F0C3FA0823FC
:105AA00029460522204606F0BDFA05232946002294
:105AB000204606F0C7FA01222B463146204606F062
:105AC000A1FA012331460022204606F0BBFA00204D
:105AD00070BD00005B5A65726F65725F4E736574CE
